{
  "_format": "hh-sol-artifact-1",
  "contractName": "NFTGiftCard",
  "sourceName": "contracts/NFTGiftCard.sol",
  "abi": [
    {
      "inputs": [],
      "stateMutability": "nonpayable",
      "type": "constructor"
    },
    {
      "inputs": [
        {
          "internalType": "address",
          "name": "sender",
          "type": "address"
        },
        {
          "internalType": "uint256",
          "name": "tokenId",
          "type": "uint256"
        },
        {
          "internalType": "address",
          "name": "owner",
          "type": "address"
        }
      ],
      "name": "ERC721IncorrectOwner",
      "type": "error"
    },
    {
      "inputs": [
        {
          "internalType": "address",
          "name": "operator",
          "type": "address"
        },
        {
          "internalType": "uint256",
          "name": "tokenId",
          "type": "uint256"
        }
      ],
      "name": "ERC721InsufficientApproval",
      "type": "error"
    },
    {
      "inputs": [
        {
          "internalType": "address",
          "name": "approver",
          "type": "address"
        }
      ],
      "name": "ERC721InvalidApprover",
      "type": "error"
    },
    {
      "inputs": [
        {
          "internalType": "address",
          "name": "operator",
          "type": "address"
        }
      ],
      "name": "ERC721InvalidOperator",
      "type": "error"
    },
    {
      "inputs": [
        {
          "internalType": "address",
          "name": "owner",
          "type": "address"
        }
      ],
      "name": "ERC721InvalidOwner",
      "type": "error"
    },
    {
      "inputs": [
        {
          "internalType": "address",
          "name": "receiver",
          "type": "address"
        }
      ],
      "name": "ERC721InvalidReceiver",
      "type": "error"
    },
    {
      "inputs": [
        {
          "internalType": "address",
          "name": "sender",
          "type": "address"
        }
      ],
      "name": "ERC721InvalidSender",
      "type": "error"
    },
    {
      "inputs": [
        {
          "internalType": "uint256",
          "name": "tokenId",
          "type": "uint256"
        }
      ],
      "name": "ERC721NonexistentToken",
      "type": "error"
    },
    {
      "inputs": [
        {
          "internalType": "address",
          "name": "owner",
          "type": "address"
        }
      ],
      "name": "OwnableInvalidOwner",
      "type": "error"
    },
    {
      "inputs": [
        {
          "internalType": "address",
          "name": "account",
          "type": "address"
        }
      ],
      "name": "OwnableUnauthorizedAccount",
      "type": "error"
    },
    {
      "anonymous": false,
      "inputs": [
        {
          "indexed": true,
          "internalType": "address",
          "name": "owner",
          "type": "address"
        },
        {
          "indexed": true,
          "internalType": "address",
          "name": "approved",
          "type": "address"
        },
        {
          "indexed": true,
          "internalType": "uint256",
          "name": "tokenId",
          "type": "uint256"
        }
      ],
      "name": "Approval",
      "type": "event"
    },
    {
      "anonymous": false,
      "inputs": [
        {
          "indexed": true,
          "internalType": "address",
          "name": "owner",
          "type": "address"
        },
        {
          "indexed": true,
          "internalType": "address",
          "name": "operator",
          "type": "address"
        },
        {
          "indexed": false,
          "internalType": "bool",
          "name": "approved",
          "type": "bool"
        }
      ],
      "name": "ApprovalForAll",
      "type": "event"
    },
    {
      "anonymous": false,
      "inputs": [
        {
          "indexed": false,
          "internalType": "uint256",
          "name": "_fromTokenId",
          "type": "uint256"
        },
        {
          "indexed": false,
          "internalType": "uint256",
          "name": "_toTokenId",
          "type": "uint256"
        }
      ],
      "name": "BatchMetadataUpdate",
      "type": "event"
    },
    {
      "anonymous": false,
      "inputs": [
        {
          "indexed": true,
          "internalType": "uint256",
          "name": "tokenId",
          "type": "uint256"
        },
        {
          "indexed": true,
          "internalType": "address",
          "name": "recipient",
          "type": "address"
        },
        {
          "indexed": false,
          "internalType": "string",
          "name": "merchantName",
          "type": "string"
        },
        {
          "indexed": false,
          "internalType": "uint256",
          "name": "value",
          "type": "uint256"
        }
      ],
      "name": "GiftCardMinted",
      "type": "event"
    },
    {
      "anonymous": false,
      "inputs": [
        {
          "indexed": true,
          "internalType": "uint256",
          "name": "tokenId",
          "type": "uint256"
        },
        {
          "indexed": true,
          "internalType": "address",
          "name": "user",
          "type": "address"
        },
        {
          "indexed": false,
          "internalType": "uint256",
          "name": "amount",
          "type": "uint256"
        }
      ],
      "name": "GiftCardRecharged",
      "type": "event"
    },
    {
      "anonymous": false,
      "inputs": [
        {
          "indexed": true,
          "internalType": "uint256",
          "name": "tokenId",
          "type": "uint256"
        },
        {
          "indexed": true,
          "internalType": "address",
          "name": "user",
          "type": "address"
        },
        {
          "indexed": false,
          "internalType": "uint256",
          "name": "amount",
          "type": "uint256"
        }
      ],
      "name": "GiftCardRedeemed",
      "type": "event"
    },
    {
      "anonymous": false,
      "inputs": [
        {
          "indexed": false,
          "internalType": "uint256",
          "name": "_tokenId",
          "type": "uint256"
        }
      ],
      "name": "MetadataUpdate",
      "type": "event"
    },
    {
      "anonymous": false,
      "inputs": [
        {
          "indexed": true,
          "internalType": "address",
          "name": "previousOwner",
          "type": "address"
        },
        {
          "indexed": true,
          "internalType": "address",
          "name": "newOwner",
          "type": "address"
        }
      ],
      "name": "OwnershipTransferred",
      "type": "event"
    },
    {
      "anonymous": false,
      "inputs": [
        {
          "indexed": true,
          "internalType": "address",
          "name": "from",
          "type": "address"
        },
        {
          "indexed": true,
          "internalType": "address",
          "name": "to",
          "type": "address"
        },
        {
          "indexed": true,
          "internalType": "uint256",
          "name": "tokenId",
          "type": "uint256"
        }
      ],
      "name": "Transfer",
      "type": "event"
    },
    {
      "inputs": [
        {
          "internalType": "address",
          "name": "to",
          "type": "address"
        },
        {
          "internalType": "uint256",
          "name": "tokenId",
          "type": "uint256"
        }
      ],
      "name": "approve",
      "outputs": [],
      "stateMutability": "nonpayable",
      "type": "function"
    },
    {
      "inputs": [
        {
          "internalType": "address",
          "name": "owner",
          "type": "address"
        }
      ],
      "name": "balanceOf",
      "outputs": [
        {
          "internalType": "uint256",
          "name": "",
          "type": "uint256"
        }
      ],
      "stateMutability": "view",
      "type": "function"
    },
    {
      "inputs": [
        {
          "internalType": "uint256",
          "name": "tokenId",
          "type": "uint256"
        }
      ],
      "name": "getApproved",
      "outputs": [
        {
          "internalType": "address",
          "name": "",
          "type": "address"
        }
      ],
      "stateMutability": "view",
      "type": "function"
    },
    {
      "inputs": [
        {
          "internalType": "uint256",
          "name": "tokenId",
          "type": "uint256"
        }
      ],
      "name": "getBalance",
      "outputs": [
        {
          "internalType": "uint256",
          "name": "",
          "type": "uint256"
        }
      ],
      "stateMutability": "view",
      "type": "function"
    },
    {
      "inputs": [
        {
          "internalType": "uint256",
          "name": "tokenId",
          "type": "uint256"
        }
      ],
      "name": "getGiftCard",
      "outputs": [
        {
          "components": [
            {
              "internalType": "string",
              "name": "merchantName",
              "type": "string"
            },
            {
              "internalType": "string",
              "name": "category",
              "type": "string"
            },
            {
              "internalType": "uint256",
              "name": "valueInWei",
              "type": "uint256"
            },
            {
              "internalType": "uint256",
              "name": "balanceInWei",
              "type": "uint256"
            },
            {
              "internalType": "bool",
              "name": "isRedeemable",
              "type": "bool"
            },
            {
              "internalType": "bool",
              "name": "isRechargeable",
              "type": "bool"
            },
            {
              "internalType": "uint256",
              "name": "expirationDate",
              "type": "uint256"
            },
            {
              "internalType": "string",
              "name": "metadata",
              "type": "string"
            }
          ],
          "internalType": "struct NFTGiftCard.GiftCard",
          "name": "",
          "type": "tuple"
        }
      ],
      "stateMutability": "view",
      "type": "function"
    },
    {
      "inputs": [
        {
          "internalType": "address",
          "name": "user",
          "type": "address"
        }
      ],
      "name": "getUserGiftCards",
      "outputs": [
        {
          "internalType": "uint256[]",
          "name": "",
          "type": "uint256[]"
        }
      ],
      "stateMutability": "view",
      "type": "function"
    },
    {
      "inputs": [
        {
          "internalType": "uint256",
          "name": "",
          "type": "uint256"
        }
      ],
      "name": "giftCards",
      "outputs": [
        {
          "internalType": "string",
          "name": "merchantName",
          "type": "string"
        },
        {
          "internalType": "string",
          "name": "category",
          "type": "string"
        },
        {
          "internalType": "uint256",
          "name": "valueInWei",
          "type": "uint256"
        },
        {
          "internalType": "uint256",
          "name": "balanceInWei",
          "type": "uint256"
        },
        {
          "internalType": "bool",
          "name": "isRedeemable",
          "type": "bool"
        },
        {
          "internalType": "bool",
          "name": "isRechargeable",
          "type": "bool"
        },
        {
          "internalType": "uint256",
          "name": "expirationDate",
          "type": "uint256"
        },
        {
          "internalType": "string",
          "name": "metadata",
          "type": "string"
        }
      ],
      "stateMutability": "view",
      "type": "function"
    },
    {
      "inputs": [
        {
          "internalType": "address",
          "name": "owner",
          "type": "address"
        },
        {
          "internalType": "address",
          "name": "operator",
          "type": "address"
        }
      ],
      "name": "isApprovedForAll",
      "outputs": [
        {
          "internalType": "bool",
          "name": "",
          "type": "bool"
        }
      ],
      "stateMutability": "view",
      "type": "function"
    },
    {
      "inputs": [
        {
          "internalType": "uint256",
          "name": "tokenId",
          "type": "uint256"
        }
      ],
      "name": "isExpired",
      "outputs": [
        {
          "internalType": "bool",
          "name": "",
          "type": "bool"
        }
      ],
      "stateMutability": "view",
      "type": "function"
    },
    {
      "inputs": [
        {
          "internalType": "address",
          "name": "to",
          "type": "address"
        },
        {
          "internalType": "string",
          "name": "merchantName",
          "type": "string"
        },
        {
          "internalType": "string",
          "name": "category",
          "type": "string"
        },
        {
          "internalType": "uint256",
          "name": "valueInWei",
          "type": "uint256"
        },
        {
          "internalType": "bool",
          "name": "isRechargeable",
          "type": "bool"
        },
        {
          "internalType": "uint256",
          "name": "expirationDate",
          "type": "uint256"
        },
        {
          "internalType": "string",
          "name": "_tokenURI",
          "type": "string"
        },
        {
          "internalType": "string",
          "name": "metadata",
          "type": "string"
        }
      ],
      "name": "mintGiftCard",
      "outputs": [
        {
          "internalType": "uint256",
          "name": "",
          "type": "uint256"
        }
      ],
      "stateMutability": "nonpayable",
      "type": "function"
    },
    {
      "inputs": [],
      "name": "name",
      "outputs": [
        {
          "internalType": "string",
          "name": "",
          "type": "string"
        }
      ],
      "stateMutability": "view",
      "type": "function"
    },
    {
      "inputs": [],
      "name": "owner",
      "outputs": [
        {
          "internalType": "address",
          "name": "",
          "type": "address"
        }
      ],
      "stateMutability": "view",
      "type": "function"
    },
    {
      "inputs": [
        {
          "internalType": "uint256",
          "name": "tokenId",
          "type": "uint256"
        }
      ],
      "name": "ownerOf",
      "outputs": [
        {
          "internalType": "address",
          "name": "",
          "type": "address"
        }
      ],
      "stateMutability": "view",
      "type": "function"
    },
    {
      "inputs": [
        {
          "internalType": "uint256",
          "name": "tokenId",
          "type": "uint256"
        }
      ],
      "name": "rechargeGiftCard",
      "outputs": [],
      "stateMutability": "payable",
      "type": "function"
    },
    {
      "inputs": [
        {
          "internalType": "uint256",
          "name": "tokenId",
          "type": "uint256"
        },
        {
          "internalType": "uint256",
          "name": "amount",
          "type": "uint256"
        }
      ],
      "name": "redeemGiftCard",
      "outputs": [],
      "stateMutability": "nonpayable",
      "type": "function"
    },
    {
      "inputs": [],
      "name": "renounceOwnership",
      "outputs": [],
      "stateMutability": "nonpayable",
      "type": "function"
    },
    {
      "inputs": [
        {
          "internalType": "address",
          "name": "from",
          "type": "address"
        },
        {
          "internalType": "address",
          "name": "to",
          "type": "address"
        },
        {
          "internalType": "uint256",
          "name": "tokenId",
          "type": "uint256"
        }
      ],
      "name": "safeTransferFrom",
      "outputs": [],
      "stateMutability": "nonpayable",
      "type": "function"
    },
    {
      "inputs": [
        {
          "internalType": "address",
          "name": "from",
          "type": "address"
        },
        {
          "internalType": "address",
          "name": "to",
          "type": "address"
        },
        {
          "internalType": "uint256",
          "name": "tokenId",
          "type": "uint256"
        },
        {
          "internalType": "bytes",
          "name": "data",
          "type": "bytes"
        }
      ],
      "name": "safeTransferFrom",
      "outputs": [],
      "stateMutability": "nonpayable",
      "type": "function"
    },
    {
      "inputs": [
        {
          "internalType": "address",
          "name": "operator",
          "type": "address"
        },
        {
          "internalType": "bool",
          "name": "approved",
          "type": "bool"
        }
      ],
      "name": "setApprovalForAll",
      "outputs": [],
      "stateMutability": "nonpayable",
      "type": "function"
    },
    {
      "inputs": [
        {
          "internalType": "bytes4",
          "name": "interfaceId",
          "type": "bytes4"
        }
      ],
      "name": "supportsInterface",
      "outputs": [
        {
          "internalType": "bool",
          "name": "",
          "type": "bool"
        }
      ],
      "stateMutability": "view",
      "type": "function"
    },
    {
      "inputs": [],
      "name": "symbol",
      "outputs": [
        {
          "internalType": "string",
          "name": "",
          "type": "string"
        }
      ],
      "stateMutability": "view",
      "type": "function"
    },
    {
      "inputs": [
        {
          "internalType": "uint256",
          "name": "tokenId",
          "type": "uint256"
        }
      ],
      "name": "tokenURI",
      "outputs": [
        {
          "internalType": "string",
          "name": "",
          "type": "string"
        }
      ],
      "stateMutability": "view",
      "type": "function"
    },
    {
      "inputs": [
        {
          "internalType": "address",
          "name": "from",
          "type": "address"
        },
        {
          "internalType": "address",
          "name": "to",
          "type": "address"
        },
        {
          "internalType": "uint256",
          "name": "tokenId",
          "type": "uint256"
        }
      ],
      "name": "transferFrom",
      "outputs": [],
      "stateMutability": "nonpayable",
      "type": "function"
    },
    {
      "inputs": [
        {
          "internalType": "address",
          "name": "newOwner",
          "type": "address"
        }
      ],
      "name": "transferOwnership",
      "outputs": [],
      "stateMutability": "nonpayable",
      "type": "function"
    },
    {
      "inputs": [
        {
          "internalType": "address",
          "name": "",
          "type": "address"
        },
        {
          "internalType": "uint256",
          "name": "",
          "type": "uint256"
        }
      ],
      "name": "userGiftCards",
      "outputs": [
        {
          "internalType": "uint256",
          "name": "",
          "type": "uint256"
        }
      ],
      "stateMutability": "view",
      "type": "function"
    },
    {
      "inputs": [],
      "name": "withdraw",
      "outputs": [],
      "stateMutability": "nonpayable",
      "type": "function"
    }
  ],
  "bytecode": "0x60806040523480156200001157600080fd5b50336040518060400160405280600d81526020016c1391950811da599d0810d85c99609a1b815250604051806040016040528060058152602001644e4654474360d81b8152508160009081620000689190620001b2565b506001620000778282620001b2565b5050506001600160a01b038116620000a957604051631e4fbdf760e01b81526000600482015260240160405180910390fd5b620000b481620000bb565b506200027e565b600780546001600160a01b038381166001600160a01b0319831681179093556040519116919082907f8be0079c531659141344cd1fd0a4f28419497f9722a3daafe3b4186f6b6457e090600090a35050565b634e487b7160e01b600052604160045260246000fd5b600181811c908216806200013857607f821691505b6020821081036200015957634e487b7160e01b600052602260045260246000fd5b50919050565b601f821115620001ad57600081815260208120601f850160051c81016020861015620001885750805b601f850160051c820191505b81811015620001a95782815560010162000194565b5050505b505050565b81516001600160401b03811115620001ce57620001ce6200010d565b620001e681620001df845462000123565b846200015f565b602080601f8311600181146200021e5760008415620002055750858301515b600019600386901b1c1916600185901b178555620001a9565b600085815260208120601f198616915b828110156200024f578886015182559484019460019091019084016200022e565b50858210156200026e5787850151600019600388901b60f8161c191681555b5050505050600190811b01905550565b612554806200028e6000396000f3fe6080604052600436106101815760003560e01c806370a08231116100d1578063a22cb4651161008a578063d9548e5311610064578063d9548e5314610476578063e086272d14610496578063e985e9c5146104c3578063f2fde38b146104e357600080fd5b8063a22cb46514610416578063b88d4fde14610436578063c87b56dd1461045657600080fd5b806370a0823114610367578063715018a6146103875780638da5cb5b1461039c578063917a2a7b146103ba57806395d89b41146103cd5780639898135f146103e257600080fd5b80631fd1c9231161013e5780633ccfd60b116101185780633ccfd60b146102f25780633e2725341461030757806342842e0e146103275780636352211e1461034757600080fd5b80631fd1c923146102925780631fdc7573146102b257806323b872dd146102d257600080fd5b806301ffc9a71461018657806306fdde03146101bb578063081812fc146101dd578063095ea7b3146102155780631179c98e146102375780631e01043914610264575b600080fd5b34801561019257600080fd5b506101a66101a1366004611d8b565b610503565b60405190151581526020015b60405180910390f35b3480156101c757600080fd5b506101d0610514565b6040516101b29190611df8565b3480156101e957600080fd5b506101fd6101f8366004611e0b565b6105a6565b6040516001600160a01b0390911681526020016101b2565b34801561022157600080fd5b50610235610230366004611e40565b6105cf565b005b34801561024357600080fd5b50610257610252366004611e0b565b6105de565b6040516101b29190611e6a565b34801561027057600080fd5b5061028461027f366004611e0b565b61087b565b6040519081526020016101b2565b34801561029e57600080fd5b506102846102ad366004611fcc565b6108c3565b3480156102be57600080fd5b506102356102cd3660046120ae565b610a43565b3480156102de57600080fd5b506102356102ed3660046120d0565b610c79565b3480156102fe57600080fd5b50610235610d04565b34801561031357600080fd5b50610284610322366004611e40565b610df9565b34801561033357600080fd5b506102356103423660046120d0565b610e2a565b34801561035357600080fd5b506101fd610362366004611e0b565b610e4a565b34801561037357600080fd5b5061028461038236600461210c565b610e55565b34801561039357600080fd5b50610235610e9d565b3480156103a857600080fd5b506007546001600160a01b03166101fd565b6102356103c8366004611e0b565b610eb1565b3480156103d957600080fd5b506101d061107b565b3480156103ee57600080fd5b506104026103fd366004611e0b565b61108a565b6040516101b2989796959493929190612127565b34801561042257600080fd5b50610235610431366004612194565b61126e565b34801561044257600080fd5b506102356104513660046121c7565b611279565b34801561046257600080fd5b506101d0610471366004611e0b565b611291565b34801561048257600080fd5b506101a6610491366004611e0b565b61129c565b3480156104a257600080fd5b506104b66104b136600461210c565b6112e6565b6040516101b29190612243565b3480156104cf57600080fd5b506101a66104de366004612287565b611352565b3480156104ef57600080fd5b506102356104fe36600461210c565b611380565b600061050e826113be565b92915050565b606060008054610523906122b1565b80601f016020809104026020016040519081016040528092919081815260200182805461054f906122b1565b801561059c5780601f106105715761010080835404028352916020019161059c565b820191906000526020600020905b81548152906001019060200180831161057f57829003601f168201915b5050505050905090565b60006105b1826113e3565b506000828152600460205260409020546001600160a01b031661050e565b6105da82823361141b565b5050565b61062a6040518061010001604052806060815260200160608152602001600081526020016000815260200160001515815260200160001515815260200160008152602001606081525090565b600061063583611428565b6001600160a01b0316036106645760405162461bcd60e51b815260040161065b906122eb565b60405180910390fd5b600082815260096020526040908190208151610100810190925280548290829061068d906122b1565b80601f01602080910402602001604051908101604052809291908181526020018280546106b9906122b1565b80156107065780601f106106db57610100808354040283529160200191610706565b820191906000526020600020905b8154815290600101906020018083116106e957829003601f168201915b5050505050815260200160018201805461071f906122b1565b80601f016020809104026020016040519081016040528092919081815260200182805461074b906122b1565b80156107985780601f1061076d57610100808354040283529160200191610798565b820191906000526020600020905b81548152906001019060200180831161077b57829003601f168201915b50505091835250506002820154602082015260038201546040820152600482015460ff808216151560608401526101009091041615156080820152600582015460a082015260068201805460c0909201916107f2906122b1565b80601f016020809104026020016040519081016040528092919081815260200182805461081e906122b1565b801561086b5780601f106108405761010080835404028352916020019161086b565b820191906000526020600020905b81548152906001019060200180831161084e57829003601f168201915b5050505050815250509050919050565b60008061088783611428565b6001600160a01b0316036108ad5760405162461bcd60e51b815260040161065b906122eb565b5060009081526009602052604090206003015490565b60006108cd611443565b6008805490819060006108df83612338565b91905055506108ee8a82611470565b6108f8818561148a565b60408051610100810182528a815260208082018b90528183018a9052606082018a90526001608083015288151560a083015260c0820188905260e082018690526000848152600990915291909120815181906109549082612397565b50602082015160018201906109699082612397565b506040820151600282015560608201516003820155608082015160048201805460a085015115156101000261ff00199315159390931661ffff199091161791909117905560c0820151600582015560e082015160068201906109cb9082612397565b5050506001600160a01b038a166000818152600a60209081526040808320805460018101825590845291909220018390555182907fc960f6e204667a52e36ed1a194fa38c2d03b2c5451fd9793edc45bc569407acb90610a2e908d908c90612457565b60405180910390a39998505050505050505050565b6000610a4e83611428565b6001600160a01b031603610a745760405162461bcd60e51b815260040161065b906122eb565b33610a7e83610e4a565b6001600160a01b031614610ad45760405162461bcd60e51b815260206004820152601f60248201527f4e6f7420746865206f776e6572206f6620746869732067696674206361726400604482015260640161065b565b60008281526009602052604090206004015460ff16610b355760405162461bcd60e51b815260206004820152601b60248201527f476966742063617264206973206e6f742072656465656d61626c650000000000604482015260640161065b565b600082815260096020526040902060030154811115610b8d5760405162461bcd60e51b8152602060048201526014602482015273496e73756666696369656e742062616c616e636560601b604482015260640161065b565b600082815260096020526040902060050154421115610be65760405162461bcd60e51b815260206004820152601560248201527411da599d0818d85c99081a185cc8195e1c1a5c9959605a1b604482015260640161065b565b60008281526009602052604081206003018054839290610c07908490612479565b90915550506000828152600960205260408120600301549003610c3e576000828152600960205260409020600401805460ff191690555b604051818152339083907fe667a0284709bee6fc34c6471af5771a558f1222ebe145af525375a49b03be729060200160405180910390a35050565b6001600160a01b038216610ca357604051633250574960e11b81526000600482015260240161065b565b6000610cb08383336114da565b9050836001600160a01b0316816001600160a01b031614610cfe576040516364283d7b60e01b81526001600160a01b038086166004830152602482018490528216604482015260640161065b565b50505050565b610d0c611443565b4780610d515760405162461bcd60e51b81526020600482015260146024820152734e6f2066756e647320746f20776974686472617760601b604482015260640161065b565b6000610d656007546001600160a01b031690565b6001600160a01b03168260405160006040518083038185875af1925050503d8060008114610daf576040519150601f19603f3d011682016040523d82523d6000602084013e610db4565b606091505b50509050806105da5760405162461bcd60e51b815260206004820152601160248201527015da5d1a191c985dd85b0819985a5b1959607a1b604482015260640161065b565b600a6020528160005260406000208181548110610e1557600080fd5b90600052602060002001600091509150505481565b610e4583838360405180602001604052806000815250611279565b505050565b600061050e826113e3565b60006001600160a01b038216610e81576040516322718ad960e21b81526000600482015260240161065b565b506001600160a01b031660009081526003602052604090205490565b610ea5611443565b610eaf60006115ce565b565b6000610ebc82611428565b6001600160a01b031603610ee25760405162461bcd60e51b815260040161065b906122eb565b33610eec82610e4a565b6001600160a01b031614610f425760405162461bcd60e51b815260206004820152601f60248201527f4e6f7420746865206f776e6572206f6620746869732067696674206361726400604482015260640161065b565b600081815260096020526040902060040154610100900460ff16610fa85760405162461bcd60e51b815260206004820152601d60248201527f476966742063617264206973206e6f7420726563686172676561626c65000000604482015260640161065b565b60003411610ff85760405162461bcd60e51b815260206004820181905260248201527f4d7573742073656e6420736f6d652076616c756520746f207265636861726765604482015260640161065b565b6000818152600960205260408120600301805434929061101990849061248c565b909155505060008181526009602052604090819020600401805460ff1916600117905551339082907f0b4e2e3ac71a816fe170693a36ca42d6baee20518338c8f9e664c21f643bdec8906110709034815260200190565b60405180910390a350565b606060018054610523906122b1565b6009602052600090815260409020805481906110a5906122b1565b80601f01602080910402602001604051908101604052809291908181526020018280546110d1906122b1565b801561111e5780601f106110f35761010080835404028352916020019161111e565b820191906000526020600020905b81548152906001019060200180831161110157829003601f168201915b505050505090806001018054611133906122b1565b80601f016020809104026020016040519081016040528092919081815260200182805461115f906122b1565b80156111ac5780601f10611181576101008083540402835291602001916111ac565b820191906000526020600020905b81548152906001019060200180831161118f57829003601f168201915b5050505060028301546003840154600485015460058601546006870180549697949693955060ff8084169561010090940416939192916111eb906122b1565b80601f0160208091040260200160405190810160405280929190818152602001828054611217906122b1565b80156112645780601f1061123957610100808354040283529160200191611264565b820191906000526020600020905b81548152906001019060200180831161124757829003601f168201915b5050505050905088565b6105da338383611620565b611284848484610c79565b610cfe33858585856116bf565b606061050e826117ea565b6000806112a883611428565b6001600160a01b0316036112ce5760405162461bcd60e51b815260040161065b906122eb565b50600090815260096020526040902060050154421190565b6001600160a01b0381166000908152600a602090815260409182902080548351818402810184019094528084526060939283018282801561134657602002820191906000526020600020905b815481526020019060010190808311611332575b50505050509050919050565b6001600160a01b03918216600090815260056020908152604080832093909416825291909152205460ff1690565b611388611443565b6001600160a01b0381166113b257604051631e4fbdf760e01b81526000600482015260240161065b565b6113bb816115ce565b50565b60006001600160e01b03198216632483248360e11b148061050e575061050e826118fb565b6000806113ef83611428565b90506001600160a01b03811661050e57604051637e27328960e01b81526004810184905260240161065b565b610e45838383600161194b565b6000908152600260205260409020546001600160a01b031690565b6007546001600160a01b03163314610eaf5760405163118cdaa760e01b815233600482015260240161065b565b6105da828260405180602001604052806000815250611a51565b60008281526006602052604090206114a28282612397565b506040518281527ff8e1a15aba9398e019f0b49df1a4fde98ee17ae345cb5f6b5e2c27f5033e8ce79060200160405180910390a15050565b6000806114e684611428565b90506001600160a01b0383161561150257611502818486611a69565b6001600160a01b038116156115405761151f60008560008061194b565b6001600160a01b038116600090815260036020526040902080546000190190555b6001600160a01b0385161561156f576001600160a01b0385166000908152600360205260409020805460010190555b60008481526002602052604080822080546001600160a01b0319166001600160a01b0389811691821790925591518793918516917fddf252ad1be2c89b69c2b068fc378daa952ba7f163c4a11628f55a4df523b3ef91a4949350505050565b600780546001600160a01b038381166001600160a01b0319831681179093556040519116919082907f8be0079c531659141344cd1fd0a4f28419497f9722a3daafe3b4186f6b6457e090600090a35050565b6001600160a01b03821661165257604051630b61174360e31b81526001600160a01b038316600482015260240161065b565b6001600160a01b03838116600081815260056020908152604080832094871680845294825291829020805460ff191686151590811790915591519182527f17307eab39ab6107e8899845ad3d59bd9653f200f220920489ca2b5937696c31910160405180910390a3505050565b6001600160a01b0383163b156117e357604051630a85bd0160e11b81526001600160a01b0384169063150b7a029061170190889088908790879060040161249f565b6020604051808303816000875af192505050801561173c575060408051601f3d908101601f19168201909252611739918101906124d2565b60015b6117a5573d80801561176a576040519150601f19603f3d011682016040523d82523d6000602084013e61176f565b606091505b50805160000361179d57604051633250574960e11b81526001600160a01b038516600482015260240161065b565b805181602001fd5b6001600160e01b03198116630a85bd0160e11b146117e157604051633250574960e11b81526001600160a01b038516600482015260240161065b565b505b5050505050565b60606117f5826113e3565b506000828152600660205260408120805461180f906122b1565b80601f016020809104026020016040519081016040528092919081815260200182805461183b906122b1565b80156118885780601f1061185d57610100808354040283529160200191611888565b820191906000526020600020905b81548152906001019060200180831161186b57829003601f168201915b5050505050905060006118a660408051602081019091526000815290565b905080516000036118b8575092915050565b8151156118ea5780826040516020016118d29291906124ef565b60405160208183030381529060405292505050919050565b6118f384611acd565b949350505050565b60006001600160e01b031982166380ac58cd60e01b148061192c57506001600160e01b03198216635b5e139f60e01b145b8061050e57506301ffc9a760e01b6001600160e01b031983161461050e565b808061195f57506001600160a01b03821615155b15611a2157600061196f846113e3565b90506001600160a01b0383161580159061199b5750826001600160a01b0316816001600160a01b031614155b80156119ae57506119ac8184611352565b155b156119d75760405163a9fbf51f60e01b81526001600160a01b038416600482015260240161065b565b8115611a1f5783856001600160a01b0316826001600160a01b03167f8c5be1e5ebec7d5bd14f71427d1e84f3dd0314c0f7b2291e5b200ac8c7c3b92560405160405180910390a45b505b5050600090815260046020526040902080546001600160a01b0319166001600160a01b0392909216919091179055565b611a5b8383611b42565b610e453360008585856116bf565b611a74838383611ba7565b610e45576001600160a01b038316611aa257604051637e27328960e01b81526004810182905260240161065b565b60405163177e802f60e01b81526001600160a01b03831660048201526024810182905260440161065b565b6060611ad8826113e3565b506000611af060408051602081019091526000815290565b90506000815111611b105760405180602001604052806000815250611b3b565b80611b1a84611c0a565b604051602001611b2b9291906124ef565b6040516020818303038152906040525b9392505050565b6001600160a01b038216611b6c57604051633250574960e11b81526000600482015260240161065b565b6000611b7a838360006114da565b90506001600160a01b03811615610e45576040516339e3563760e11b81526000600482015260240161065b565b60006001600160a01b038316158015906118f35750826001600160a01b0316846001600160a01b03161480611be15750611be18484611352565b806118f35750506000908152600460205260409020546001600160a01b03908116911614919050565b60606000611c1783611c9d565b600101905060008167ffffffffffffffff811115611c3757611c37611f10565b6040519080825280601f01601f191660200182016040528015611c61576020820181803683370190505b5090508181016020015b600019016f181899199a1a9b1b9c1cb0b131b232b360811b600a86061a8153600a8504945084611c6b57509392505050565b60008072184f03e93ff9f4daa797ed6e38ed64bf6a1f0160401b8310611cdc5772184f03e93ff9f4daa797ed6e38ed64bf6a1f0160401b830492506040015b6d04ee2d6d415b85acef81000000008310611d08576d04ee2d6d415b85acef8100000000830492506020015b662386f26fc100008310611d2657662386f26fc10000830492506010015b6305f5e1008310611d3e576305f5e100830492506008015b6127108310611d5257612710830492506004015b60648310611d64576064830492506002015b600a831061050e5760010192915050565b6001600160e01b0319811681146113bb57600080fd5b600060208284031215611d9d57600080fd5b8135611b3b81611d75565b60005b83811015611dc3578181015183820152602001611dab565b50506000910152565b60008151808452611de4816020860160208601611da8565b601f01601f19169290920160200192915050565b602081526000611b3b6020830184611dcc565b600060208284031215611e1d57600080fd5b5035919050565b80356001600160a01b0381168114611e3b57600080fd5b919050565b60008060408385031215611e5357600080fd5b611e5c83611e24565b946020939093013593505050565b6020815260008251610100806020850152611e89610120850183611dcc565b91506020850151601f1980868503016040870152611ea78483611dcc565b9350604087015160608701526060870151608087015260808701519150611ed260a087018315159052565b60a087015180151560c0880152915060c087015160e087015260e0870151915080868503018387015250611f068382611dcc565b9695505050505050565b634e487b7160e01b600052604160045260246000fd5b600067ffffffffffffffff80841115611f4157611f41611f10565b604051601f8501601f19908116603f01168101908282118183101715611f6957611f69611f10565b81604052809350858152868686011115611f8257600080fd5b858560208301376000602087830101525050509392505050565b600082601f830112611fad57600080fd5b611b3b83833560208501611f26565b80358015158114611e3b57600080fd5b600080600080600080600080610100898b031215611fe957600080fd5b611ff289611e24565b9750602089013567ffffffffffffffff8082111561200f57600080fd5b61201b8c838d01611f9c565b985060408b013591508082111561203157600080fd5b61203d8c838d01611f9c565b975060608b0135965061205260808c01611fbc565b955060a08b0135945060c08b013591508082111561206f57600080fd5b61207b8c838d01611f9c565b935060e08b013591508082111561209157600080fd5b5061209e8b828c01611f9c565b9150509295985092959890939650565b600080604083850312156120c157600080fd5b50508035926020909101359150565b6000806000606084860312156120e557600080fd5b6120ee84611e24565b92506120fc60208501611e24565b9150604084013590509250925092565b60006020828403121561211e57600080fd5b611b3b82611e24565b600061010080835261213b8184018c611dcc565b9050828103602084015261214f818b611dcc565b9050886040840152876060840152861515608084015285151560a08401528460c084015282810360e08401526121858185611dcc565b9b9a5050505050505050505050565b600080604083850312156121a757600080fd5b6121b083611e24565b91506121be60208401611fbc565b90509250929050565b600080600080608085870312156121dd57600080fd5b6121e685611e24565b93506121f460208601611e24565b925060408501359150606085013567ffffffffffffffff81111561221757600080fd5b8501601f8101871361222857600080fd5b61223787823560208401611f26565b91505092959194509250565b6020808252825182820181905260009190848201906040850190845b8181101561227b5783518352928401929184019160010161225f565b50909695505050505050565b6000806040838503121561229a57600080fd5b6122a383611e24565b91506121be60208401611e24565b600181811c908216806122c557607f821691505b6020821081036122e557634e487b7160e01b600052602260045260246000fd5b50919050565b60208082526018908201527f47696674206361726420646f6573206e6f742065786973740000000000000000604082015260600190565b634e487b7160e01b600052601160045260246000fd5b60006001820161234a5761234a612322565b5060010190565b601f821115610e4557600081815260208120601f850160051c810160208610156123785750805b601f850160051c820191505b818110156117e157828155600101612384565b815167ffffffffffffffff8111156123b1576123b1611f10565b6123c5816123bf84546122b1565b84612351565b602080601f8311600181146123fa57600084156123e25750858301515b600019600386901b1c1916600185901b1785556117e1565b600085815260208120601f198616915b828110156124295788860151825594840194600190910190840161240a565b50858210156124475787850151600019600388901b60f8161c191681555b5050505050600190811b01905550565b60408152600061246a6040830185611dcc565b90508260208301529392505050565b8181038181111561050e5761050e612322565b8082018082111561050e5761050e612322565b6001600160a01b0385811682528416602082015260408101839052608060608201819052600090611f0690830184611dcc565b6000602082840312156124e457600080fd5b8151611b3b81611d75565b60008351612501818460208801611da8565b835190830190612515818360208801611da8565b0194935050505056fea2646970667358221220f8d65f34990f2360464c1be68576fe789d59d2aa870380b628c9130cd4d4d98364736f6c63430008140033",
  "linkReferences": {},
  "deployedLinkReferences": {}
}