{
  "_format": "hh-sol-artifact-1",
  "contractName": "NFTGiftCard",
  "sourceName": "contracts/NFTGiftCard.sol",
  "abi": [
    {
      "inputs": [],
      "stateMutability": "nonpayable",
      "type": "constructor"
    },
    {
      "inputs": [
        {
          "internalType": "address",
          "name": "sender",
          "type": "address"
        },
        {
          "internalType": "uint256",
          "name": "tokenId",
          "type": "uint256"
        },
        {
          "internalType": "address",
          "name": "owner",
          "type": "address"
        }
      ],
      "name": "ERC721IncorrectOwner",
      "type": "error"
    },
    {
      "inputs": [
        {
          "internalType": "address",
          "name": "operator",
          "type": "address"
        },
        {
          "internalType": "uint256",
          "name": "tokenId",
          "type": "uint256"
        }
      ],
      "name": "ERC721InsufficientApproval",
      "type": "error"
    },
    {
      "inputs": [
        {
          "internalType": "address",
          "name": "approver",
          "type": "address"
        }
      ],
      "name": "ERC721InvalidApprover",
      "type": "error"
    },
    {
      "inputs": [
        {
          "internalType": "address",
          "name": "operator",
          "type": "address"
        }
      ],
      "name": "ERC721InvalidOperator",
      "type": "error"
    },
    {
      "inputs": [
        {
          "internalType": "address",
          "name": "owner",
          "type": "address"
        }
      ],
      "name": "ERC721InvalidOwner",
      "type": "error"
    },
    {
      "inputs": [
        {
          "internalType": "address",
          "name": "receiver",
          "type": "address"
        }
      ],
      "name": "ERC721InvalidReceiver",
      "type": "error"
    },
    {
      "inputs": [
        {
          "internalType": "address",
          "name": "sender",
          "type": "address"
        }
      ],
      "name": "ERC721InvalidSender",
      "type": "error"
    },
    {
      "inputs": [
        {
          "internalType": "uint256",
          "name": "tokenId",
          "type": "uint256"
        }
      ],
      "name": "ERC721NonexistentToken",
      "type": "error"
    },
    {
      "inputs": [
        {
          "internalType": "address",
          "name": "owner",
          "type": "address"
        }
      ],
      "name": "OwnableInvalidOwner",
      "type": "error"
    },
    {
      "inputs": [
        {
          "internalType": "address",
          "name": "account",
          "type": "address"
        }
      ],
      "name": "OwnableUnauthorizedAccount",
      "type": "error"
    },
    {
      "inputs": [],
      "name": "ReentrancyGuardReentrantCall",
      "type": "error"
    },
    {
      "anonymous": false,
      "inputs": [
        {
          "indexed": true,
          "internalType": "address",
          "name": "owner",
          "type": "address"
        },
        {
          "indexed": true,
          "internalType": "address",
          "name": "approved",
          "type": "address"
        },
        {
          "indexed": true,
          "internalType": "uint256",
          "name": "tokenId",
          "type": "uint256"
        }
      ],
      "name": "Approval",
      "type": "event"
    },
    {
      "anonymous": false,
      "inputs": [
        {
          "indexed": true,
          "internalType": "address",
          "name": "owner",
          "type": "address"
        },
        {
          "indexed": true,
          "internalType": "address",
          "name": "operator",
          "type": "address"
        },
        {
          "indexed": false,
          "internalType": "bool",
          "name": "approved",
          "type": "bool"
        }
      ],
      "name": "ApprovalForAll",
      "type": "event"
    },
    {
      "anonymous": false,
      "inputs": [
        {
          "indexed": false,
          "internalType": "uint256",
          "name": "_fromTokenId",
          "type": "uint256"
        },
        {
          "indexed": false,
          "internalType": "uint256",
          "name": "_toTokenId",
          "type": "uint256"
        }
      ],
      "name": "BatchMetadataUpdate",
      "type": "event"
    },
    {
      "anonymous": false,
      "inputs": [
        {
          "indexed": true,
          "internalType": "uint256",
          "name": "tokenId",
          "type": "uint256"
        },
        {
          "indexed": false,
          "internalType": "uint256",
          "name": "valor",
          "type": "uint256"
        },
        {
          "indexed": false,
          "internalType": "uint256",
          "name": "novoSaldo",
          "type": "uint256"
        }
      ],
      "name": "CartaoRecarregado",
      "type": "event"
    },
    {
      "anonymous": false,
      "inputs": [
        {
          "indexed": false,
          "internalType": "uint256",
          "name": "_tokenId",
          "type": "uint256"
        }
      ],
      "name": "MetadataUpdate",
      "type": "event"
    },
    {
      "anonymous": false,
      "inputs": [
        {
          "indexed": true,
          "internalType": "uint256",
          "name": "tokenId",
          "type": "uint256"
        },
        {
          "indexed": false,
          "internalType": "address",
          "name": "comprador",
          "type": "address"
        },
        {
          "indexed": false,
          "internalType": "uint256",
          "name": "saldo",
          "type": "uint256"
        }
      ],
      "name": "NovoGiftCard",
      "type": "event"
    },
    {
      "anonymous": false,
      "inputs": [
        {
          "indexed": true,
          "internalType": "address",
          "name": "previousOwner",
          "type": "address"
        },
        {
          "indexed": true,
          "internalType": "address",
          "name": "newOwner",
          "type": "address"
        }
      ],
      "name": "OwnershipTransferred",
      "type": "event"
    },
    {
      "anonymous": false,
      "inputs": [
        {
          "indexed": true,
          "internalType": "uint256",
          "name": "tokenId",
          "type": "uint256"
        },
        {
          "indexed": false,
          "internalType": "uint256",
          "name": "valor",
          "type": "uint256"
        },
        {
          "indexed": false,
          "internalType": "uint256",
          "name": "saldoRestante",
          "type": "uint256"
        }
      ],
      "name": "SaldoGastado",
      "type": "event"
    },
    {
      "anonymous": false,
      "inputs": [
        {
          "indexed": true,
          "internalType": "address",
          "name": "from",
          "type": "address"
        },
        {
          "indexed": true,
          "internalType": "address",
          "name": "to",
          "type": "address"
        },
        {
          "indexed": true,
          "internalType": "uint256",
          "name": "tokenId",
          "type": "uint256"
        }
      ],
      "name": "Transfer",
      "type": "event"
    },
    {
      "anonymous": false,
      "inputs": [
        {
          "indexed": false,
          "internalType": "uint256",
          "name": "originalTokenId",
          "type": "uint256"
        },
        {
          "indexed": false,
          "internalType": "uint256",
          "name": "novoTokenId",
          "type": "uint256"
        },
        {
          "indexed": false,
          "internalType": "uint256",
          "name": "valor",
          "type": "uint256"
        }
      ],
      "name": "TrocoGerado",
      "type": "event"
    },
    {
      "inputs": [
        {
          "internalType": "address",
          "name": "to",
          "type": "address"
        },
        {
          "internalType": "uint256",
          "name": "tokenId",
          "type": "uint256"
        }
      ],
      "name": "approve",
      "outputs": [],
      "stateMutability": "nonpayable",
      "type": "function"
    },
    {
      "inputs": [
        {
          "internalType": "address",
          "name": "owner",
          "type": "address"
        }
      ],
      "name": "balanceOf",
      "outputs": [
        {
          "internalType": "uint256",
          "name": "",
          "type": "uint256"
        }
      ],
      "stateMutability": "view",
      "type": "function"
    },
    {
      "inputs": [
        {
          "internalType": "uint256",
          "name": "tokenId",
          "type": "uint256"
        },
        {
          "internalType": "uint256",
          "name": "valor",
          "type": "uint256"
        }
      ],
      "name": "gerarTroco",
      "outputs": [],
      "stateMutability": "nonpayable",
      "type": "function"
    },
    {
      "inputs": [
        {
          "internalType": "uint256",
          "name": "tokenId",
          "type": "uint256"
        }
      ],
      "name": "getApproved",
      "outputs": [
        {
          "internalType": "address",
          "name": "",
          "type": "address"
        }
      ],
      "stateMutability": "view",
      "type": "function"
    },
    {
      "inputs": [
        {
          "internalType": "uint256",
          "name": "tokenId",
          "type": "uint256"
        }
      ],
      "name": "getGiftCard",
      "outputs": [
        {
          "internalType": "string",
          "name": "comerciante",
          "type": "string"
        },
        {
          "internalType": "string",
          "name": "categoria",
          "type": "string"
        },
        {
          "internalType": "uint256",
          "name": "valorTotal",
          "type": "uint256"
        },
        {
          "internalType": "uint256",
          "name": "saldoRestante",
          "type": "uint256"
        },
        {
          "internalType": "bool",
          "name": "recarregavel",
          "type": "bool"
        },
        {
          "internalType": "uint256",
          "name": "dataExpiracao",
          "type": "uint256"
        },
        {
          "internalType": "string",
          "name": "metadata",
          "type": "string"
        }
      ],
      "stateMutability": "view",
      "type": "function"
    },
    {
      "inputs": [
        {
          "internalType": "address",
          "name": "user",
          "type": "address"
        }
      ],
      "name": "getUserGiftCards",
      "outputs": [
        {
          "internalType": "uint256[]",
          "name": "",
          "type": "uint256[]"
        }
      ],
      "stateMutability": "view",
      "type": "function"
    },
    {
      "inputs": [
        {
          "internalType": "address",
          "name": "owner",
          "type": "address"
        },
        {
          "internalType": "address",
          "name": "operator",
          "type": "address"
        }
      ],
      "name": "isApprovedForAll",
      "outputs": [
        {
          "internalType": "bool",
          "name": "",
          "type": "bool"
        }
      ],
      "stateMutability": "view",
      "type": "function"
    },
    {
      "inputs": [
        {
          "internalType": "uint256",
          "name": "tokenId",
          "type": "uint256"
        }
      ],
      "name": "isExpired",
      "outputs": [
        {
          "internalType": "bool",
          "name": "",
          "type": "bool"
        }
      ],
      "stateMutability": "view",
      "type": "function"
    },
    {
      "inputs": [
        {
          "internalType": "address",
          "name": "para",
          "type": "address"
        },
        {
          "internalType": "string",
          "name": "comerciante",
          "type": "string"
        },
        {
          "internalType": "string",
          "name": "categoria",
          "type": "string"
        },
        {
          "internalType": "uint256",
          "name": "valorInicial",
          "type": "uint256"
        },
        {
          "internalType": "bool",
          "name": "recarregavel",
          "type": "bool"
        },
        {
          "internalType": "uint256",
          "name": "dataExpiracao",
          "type": "uint256"
        },
        {
          "internalType": "string",
          "name": "uri",
          "type": "string"
        },
        {
          "internalType": "string",
          "name": "metadata",
          "type": "string"
        }
      ],
      "name": "mintGiftCard",
      "outputs": [
        {
          "internalType": "uint256",
          "name": "",
          "type": "uint256"
        }
      ],
      "stateMutability": "payable",
      "type": "function"
    },
    {
      "inputs": [],
      "name": "name",
      "outputs": [
        {
          "internalType": "string",
          "name": "",
          "type": "string"
        }
      ],
      "stateMutability": "view",
      "type": "function"
    },
    {
      "inputs": [],
      "name": "owner",
      "outputs": [
        {
          "internalType": "address",
          "name": "",
          "type": "address"
        }
      ],
      "stateMutability": "view",
      "type": "function"
    },
    {
      "inputs": [
        {
          "internalType": "uint256",
          "name": "tokenId",
          "type": "uint256"
        }
      ],
      "name": "ownerOf",
      "outputs": [
        {
          "internalType": "address",
          "name": "",
          "type": "address"
        }
      ],
      "stateMutability": "view",
      "type": "function"
    },
    {
      "inputs": [
        {
          "internalType": "uint256",
          "name": "tokenId",
          "type": "uint256"
        }
      ],
      "name": "rechargeGiftCard",
      "outputs": [],
      "stateMutability": "payable",
      "type": "function"
    },
    {
      "inputs": [
        {
          "internalType": "uint256",
          "name": "tokenId",
          "type": "uint256"
        },
        {
          "internalType": "uint256",
          "name": "valor",
          "type": "uint256"
        }
      ],
      "name": "redeemGiftCard",
      "outputs": [],
      "stateMutability": "nonpayable",
      "type": "function"
    },
    {
      "inputs": [],
      "name": "renounceOwnership",
      "outputs": [],
      "stateMutability": "nonpayable",
      "type": "function"
    },
    {
      "inputs": [
        {
          "internalType": "address",
          "name": "from",
          "type": "address"
        },
        {
          "internalType": "address",
          "name": "to",
          "type": "address"
        },
        {
          "internalType": "uint256",
          "name": "tokenId",
          "type": "uint256"
        }
      ],
      "name": "safeTransferFrom",
      "outputs": [],
      "stateMutability": "nonpayable",
      "type": "function"
    },
    {
      "inputs": [
        {
          "internalType": "address",
          "name": "from",
          "type": "address"
        },
        {
          "internalType": "address",
          "name": "to",
          "type": "address"
        },
        {
          "internalType": "uint256",
          "name": "tokenId",
          "type": "uint256"
        },
        {
          "internalType": "bytes",
          "name": "data",
          "type": "bytes"
        }
      ],
      "name": "safeTransferFrom",
      "outputs": [],
      "stateMutability": "nonpayable",
      "type": "function"
    },
    {
      "inputs": [
        {
          "internalType": "uint256",
          "name": "tokenId",
          "type": "uint256"
        }
      ],
      "name": "saldoDisponivel",
      "outputs": [
        {
          "internalType": "uint256",
          "name": "",
          "type": "uint256"
        }
      ],
      "stateMutability": "view",
      "type": "function"
    },
    {
      "inputs": [
        {
          "internalType": "address",
          "name": "operator",
          "type": "address"
        },
        {
          "internalType": "bool",
          "name": "approved",
          "type": "bool"
        }
      ],
      "name": "setApprovalForAll",
      "outputs": [],
      "stateMutability": "nonpayable",
      "type": "function"
    },
    {
      "inputs": [
        {
          "internalType": "bytes4",
          "name": "interfaceId",
          "type": "bytes4"
        }
      ],
      "name": "supportsInterface",
      "outputs": [
        {
          "internalType": "bool",
          "name": "",
          "type": "bool"
        }
      ],
      "stateMutability": "view",
      "type": "function"
    },
    {
      "inputs": [],
      "name": "symbol",
      "outputs": [
        {
          "internalType": "string",
          "name": "",
          "type": "string"
        }
      ],
      "stateMutability": "view",
      "type": "function"
    },
    {
      "inputs": [
        {
          "internalType": "uint256",
          "name": "tokenId",
          "type": "uint256"
        }
      ],
      "name": "tokenURI",
      "outputs": [
        {
          "internalType": "string",
          "name": "",
          "type": "string"
        }
      ],
      "stateMutability": "view",
      "type": "function"
    },
    {
      "inputs": [
        {
          "internalType": "address",
          "name": "from",
          "type": "address"
        },
        {
          "internalType": "address",
          "name": "to",
          "type": "address"
        },
        {
          "internalType": "uint256",
          "name": "tokenId",
          "type": "uint256"
        }
      ],
      "name": "transferFrom",
      "outputs": [],
      "stateMutability": "nonpayable",
      "type": "function"
    },
    {
      "inputs": [
        {
          "internalType": "address",
          "name": "newOwner",
          "type": "address"
        }
      ],
      "name": "transferOwnership",
      "outputs": [],
      "stateMutability": "nonpayable",
      "type": "function"
    }
  ],
  "bytecode": "0x60806040523480156200001157600080fd5b50336040518060400160405280600d81526020016c1391950811da599d0810d85c99609a1b815250604051806040016040528060058152602001644e4654474360d81b8152508160009081620000689190620001b7565b506001620000778282620001b7565b50506001600755506001600160a01b038116620000ae57604051631e4fbdf760e01b81526000600482015260240160405180910390fd5b620000b981620000c0565b5062000283565b600880546001600160a01b038381166001600160a01b0319831681179093556040519116919082907f8be0079c531659141344cd1fd0a4f28419497f9722a3daafe3b4186f6b6457e090600090a35050565b634e487b7160e01b600052604160045260246000fd5b600181811c908216806200013d57607f821691505b6020821081036200015e57634e487b7160e01b600052602260045260246000fd5b50919050565b601f821115620001b257600081815260208120601f850160051c810160208610156200018d5750805b601f850160051c820191505b81811015620001ae5782815560010162000199565b5050505b505050565b81516001600160401b03811115620001d357620001d362000112565b620001eb81620001e4845462000128565b8462000164565b602080601f8311600181146200022357600084156200020a5750858301515b600019600386901b1c1916600185901b178555620001ae565b600085815260208120601f198616915b82811015620002545788860151825594840194600190910190840162000233565b5085821015620002735787850151600019600388901b60f8161c191681555b5050505050600190811b01905550565b61238280620002936000396000f3fe60806040526004361061014b5760003560e01c806370a08231116100b6578063b88d4fde1161006f578063b88d4fde146103b0578063c87b56dd146103d0578063d9548e53146103f0578063e086272d14610410578063e985e9c51461043d578063f2fde38b1461045d57600080fd5b806370a0823114610315578063715018a6146103355780638da5cb5b1461034a578063917a2a7b1461036857806395d89b411461037b578063a22cb4651461039057600080fd5b80631fd1c923116101085780631fd1c923146102545780631fdc75731461027557806323b872dd146102955780632d727bde146102b557806342842e0e146102d55780636352211e146102f557600080fd5b806301ffc9a71461015057806306fdde0314610185578063081812fc146101a7578063095ea7b3146101df5780630bfc418d146102015780631179c98e14610221575b600080fd5b34801561015c57600080fd5b5061017061016b366004611c64565b61047d565b60405190151581526020015b60405180910390f35b34801561019157600080fd5b5061019a61049d565b60405161017c9190611cd1565b3480156101b357600080fd5b506101c76101c2366004611ce4565b61052f565b6040516001600160a01b03909116815260200161017c565b3480156101eb57600080fd5b506101ff6101fa366004611d19565b610558565b005b34801561020d57600080fd5b506101ff61021c366004611d43565b610567565b34801561022d57600080fd5b5061024161023c366004611ce4565b610962565b60405161017c9796959493929190611d65565b610267610262366004611e82565b610ba7565b60405190815260200161017c565b34801561028157600080fd5b506101ff610290366004611d43565b610d4a565b3480156102a157600080fd5b506101ff6102b0366004611f64565b610e9b565b3480156102c157600080fd5b506102676102d0366004611ce4565b610f26565b3480156102e157600080fd5b506101ff6102f0366004611f64565b610f79565b34801561030157600080fd5b506101c7610310366004611ce4565b610f99565b34801561032157600080fd5b50610267610330366004611fa0565b610fa4565b34801561034157600080fd5b506101ff610fec565b34801561035657600080fd5b506008546001600160a01b03166101c7565b6101ff610376366004611ce4565b611000565b34801561038757600080fd5b5061019a611156565b34801561039c57600080fd5b506101ff6103ab366004611fbb565b611165565b3480156103bc57600080fd5b506101ff6103cb366004611fee565b611170565b3480156103dc57600080fd5b5061019a6103eb366004611ce4565b611188565b3480156103fc57600080fd5b5061017061040b366004611ce4565b611193565b34801561041c57600080fd5b5061043061042b366004611fa0565b6111df565b60405161017c919061206a565b34801561044957600080fd5b506101706104583660046120ae565b61124b565b34801561046957600080fd5b506101ff610478366004611fa0565b611279565b6000610488826112b4565b80610497575061049782611304565b92915050565b6060600080546104ac906120d8565b80601f01602080910402602001604051908101604052809291908181526020018280546104d8906120d8565b80156105255780601f106104fa57610100808354040283529160200191610525565b820191906000526020600020905b81548152906001019060200180831161050857829003601f168201915b5050505050905090565b600061053a82611329565b506000828152600460205260409020546001600160a01b0316610497565b610563828233611362565b5050565b61056f61136f565b3361057983610f99565b6001600160a01b0316146105a85760405162461bcd60e51b815260040161059f90612112565b60405180910390fd5b60006105b383610f26565b9050818110156106055760405162461bcd60e51b815260206004820152601f60248201527f496e73756666696369656e742062616c616e636520666f72206368616e676500604482015260640161059f565b600b80546000918261061683612150565b9190505590506106263382611399565b6040518060e001604052808481526020016000815260200160096000878152602001908152602001600020600201805461065f906120d8565b80601f016020809104026020016040519081016040528092919081815260200182805461068b906120d8565b80156106d85780601f106106ad576101008083540402835291602001916106d8565b820191906000526020600020905b8154815290600101906020018083116106bb57829003601f168201915b50505050508152602001600960008781526020019081526020016000206003018054610703906120d8565b80601f016020809104026020016040519081016040528092919081815260200182805461072f906120d8565b801561077c5780601f106107515761010080835404028352916020019161077c565b820191906000526020600020905b81548152906001019060200180831161075f57829003601f168201915b50505091835250506000868152600960208181526040808420600481015460ff16151583870152600581015491860191909152928990525260060180546060909201916107c8906120d8565b80601f01602080910402602001604051908101604052809291908181526020018280546107f4906120d8565b80156108415780601f1061081657610100808354040283529160200191610841565b820191906000526020600020905b81548152906001019060200180831161082457829003601f168201915b5050509190925250506000828152600960209081526040918290208351815590830151600182015590820151600282019061087c90826121af565b506060820151600382019061089190826121af565b50608082015160048201805460ff191691151591909117905560a0820151600582015560c082015160068201906108c890826121af565b505050600084815260096020526040812060010180548592906108ec90849061226f565b9091555050336000908152600a6020908152604080832080546001810182559084529282902090920183905581518681529081018390529081018490527ffe6186985481b0d1cc4250896b68387e2fd596b17cd1d44402ff3c75505a70f79060600160405180910390a150506105636001600755565b606080600080600080606061098e886000908152600260205260409020546001600160a01b0316151590565b6109aa5760405162461bcd60e51b815260040161059f90612282565b600088815260096020526040902080546001820154600283019160038401916109d390826122b0565b60048501546005860154855460ff90921691600688019087906109f5906120d8565b80601f0160208091040260200160405190810160405280929190818152602001828054610a21906120d8565b8015610a6e5780601f10610a4357610100808354040283529160200191610a6e565b820191906000526020600020905b815481529060010190602001808311610a5157829003601f168201915b50505050509650858054610a81906120d8565b80601f0160208091040260200160405190810160405280929190818152602001828054610aad906120d8565b8015610afa5780601f10610acf57610100808354040283529160200191610afa565b820191906000526020600020905b815481529060010190602001808311610add57829003601f168201915b50505050509550808054610b0d906120d8565b80601f0160208091040260200160405190810160405280929190818152602001828054610b39906120d8565b8015610b865780601f10610b5b57610100808354040283529160200191610b86565b820191906000526020600020905b815481529060010190602001808311610b6957829003601f168201915b50505050509050975097509750975097509750975050919395979092949650565b6000803411610bf85760405162461bcd60e51b815260206004820181905260248201527f45544820726571756972656420746f2063726561746520676966742063617264604482015260640161059f565b600b805460009182610c0983612150565b919050559050610c198a82611399565b610c2381856113fe565b6040805160e081018252348152600060208083018281528385018e8152606085018e90528b1515608086015260a085018b905260c085018990528684526009909252939091208251815592516001840155519091906002820190610c8790826121af565b5060608201516003820190610c9c90826121af565b50608082015160048201805460ff191691151591909117905560a0820151600582015560c08201516006820190610cd390826121af565b5050506001600160a01b038a166000818152600a602090815260408083208054600181018255908452928290209092018490558151928352349083015282917faac67595b4130907a2ef6238540b53db86227bc4297bcaa94384481d2a318e8b910160405180910390a29998505050505050505050565b610d5261136f565b33610d5c83610f99565b6001600160a01b031614610d825760405162461bcd60e51b815260040161059f90612112565b610d8b82610f26565b811115610dd15760405162461bcd60e51b8152602060048201526014602482015273496e73756666696369656e742062616c616e636560601b604482015260640161059f565b600082815260096020526040902060050154421115610e265760405162461bcd60e51b815260206004820152601160248201527011da599d0818d85c9908195e1c1a5c9959607a1b604482015260640161059f565b60008281526009602052604081206001018054839290610e4790849061226f565b909155508290507fbe3fb13f9bb18e7a388fd61d7c498c24c76bd2a53a046c1eb65643d0918b4f0782610e7983610f26565b6040805192835260208301919091520160405180910390a26105636001600755565b6001600160a01b038216610ec557604051633250574960e11b81526000600482015260240161059f565b6000610ed283833361144e565b9050836001600160a01b0316816001600160a01b031614610f20576040516364283d7b60e01b81526001600160a01b038086166004830152602482018490528216604482015260640161059f565b50505050565b6000818152600260205260408120546001600160a01b0316610f5a5760405162461bcd60e51b815260040161059f90612282565b60008281526009602052604090206001810154905461049791906122b0565b610f9483838360405180602001604052806000815250611170565b505050565b600061049782611329565b60006001600160a01b038216610fd0576040516322718ad960e21b81526000600482015260240161059f565b506001600160a01b031660009081526003602052604090205490565b610ff4611547565b610ffe6000611574565b565b61100861136f565b3361101282610f99565b6001600160a01b0316146110385760405162461bcd60e51b815260040161059f90612112565b60008181526009602052604090206004015460ff166110915760405162461bcd60e51b815260206004820152601560248201527443617264206e6f7420726563686172676561626c6560581b604482015260640161059f565b600034116110e15760405162461bcd60e51b815260206004820152601860248201527f45544820726571756972656420746f2072656368617267650000000000000000604482015260640161059f565b600081815260096020526040812080543492906110ff90849061226f565b909155508190507f46180e44f4fb9e6104709a1d9908b09ec41fe0921fc4216c59a402c7a34d33f63461113183610f26565b6040805192835260208301919091520160405180910390a26111536001600755565b50565b6060600180546104ac906120d8565b6105633383836115c6565b61117b848484610e9b565b610f203385858585611665565b606061049782611790565b6000818152600260205260408120546001600160a01b03166111c75760405162461bcd60e51b815260040161059f90612282565b50600090815260096020526040902060050154421190565b6001600160a01b0381166000908152600a602090815260409182902080548351818402810184019094528084526060939283018282801561123f57602002820191906000526020600020905b81548152602001906001019080831161122b575b50505050509050919050565b6001600160a01b03918216600090815260056020908152604080832093909416825291909152205460ff1690565b611281611547565b6001600160a01b0381166112ab57604051631e4fbdf760e01b81526000600482015260240161059f565b61115381611574565b60006001600160e01b031982166380ac58cd60e01b14806112e557506001600160e01b03198216635b5e139f60e01b145b8061049757506301ffc9a760e01b6001600160e01b0319831614610497565b60006001600160e01b03198216632483248360e11b14806104975750610497826112b4565b6000818152600260205260408120546001600160a01b03168061049757604051637e27328960e01b81526004810184905260240161059f565b610f9483838360016118a1565b60026007540361139257604051633ee5aeb560e01b815260040160405180910390fd5b6002600755565b6001600160a01b0382166113c357604051633250574960e11b81526000600482015260240161059f565b60006113d18383600061144e565b90506001600160a01b03811615610f94576040516339e3563760e11b81526000600482015260240161059f565b600082815260066020526040902061141682826121af565b506040518281527ff8e1a15aba9398e019f0b49df1a4fde98ee17ae345cb5f6b5e2c27f5033e8ce79060200160405180910390a15050565b6000828152600260205260408120546001600160a01b039081169083161561147b5761147b8184866119a7565b6001600160a01b038116156114b9576114986000856000806118a1565b6001600160a01b038116600090815260036020526040902080546000190190555b6001600160a01b038516156114e8576001600160a01b0385166000908152600360205260409020805460010190555b60008481526002602052604080822080546001600160a01b0319166001600160a01b0389811691821790925591518793918516917fddf252ad1be2c89b69c2b068fc378daa952ba7f163c4a11628f55a4df523b3ef91a4949350505050565b6008546001600160a01b03163314610ffe5760405163118cdaa760e01b815233600482015260240161059f565b600880546001600160a01b038381166001600160a01b0319831681179093556040519116919082907f8be0079c531659141344cd1fd0a4f28419497f9722a3daafe3b4186f6b6457e090600090a35050565b6001600160a01b0382166115f857604051630b61174360e31b81526001600160a01b038316600482015260240161059f565b6001600160a01b03838116600081815260056020908152604080832094871680845294825291829020805460ff191686151590811790915591519182527f17307eab39ab6107e8899845ad3d59bd9653f200f220920489ca2b5937696c31910160405180910390a3505050565b6001600160a01b0383163b1561178957604051630a85bd0160e11b81526001600160a01b0384169063150b7a02906116a79088908890879087906004016122c3565b6020604051808303816000875af19250505080156116e2575060408051601f3d908101601f191682019092526116df91810190612300565b60015b61174b573d808015611710576040519150601f19603f3d011682016040523d82523d6000602084013e611715565b606091505b50805160000361174357604051633250574960e11b81526001600160a01b038516600482015260240161059f565b805181602001fd5b6001600160e01b03198116630a85bd0160e11b1461178757604051633250574960e11b81526001600160a01b038516600482015260240161059f565b505b5050505050565b606061179b82611329565b50600082815260066020526040812080546117b5906120d8565b80601f01602080910402602001604051908101604052809291908181526020018280546117e1906120d8565b801561182e5780601f106118035761010080835404028352916020019161182e565b820191906000526020600020905b81548152906001019060200180831161181157829003601f168201915b50505050509050600061184c60408051602081019091526000815290565b9050805160000361185e575092915050565b81511561189057808260405160200161187892919061231d565b60405160208183030381529060405292505050919050565b61189984611a0b565b949350505050565b80806118b557506001600160a01b03821615155b156119775760006118c584611329565b90506001600160a01b038316158015906118f15750826001600160a01b0316816001600160a01b031614155b80156119045750611902818461124b565b155b1561192d5760405163a9fbf51f60e01b81526001600160a01b038416600482015260240161059f565b81156119755783856001600160a01b0316826001600160a01b03167f8c5be1e5ebec7d5bd14f71427d1e84f3dd0314c0f7b2291e5b200ac8c7c3b92560405160405180910390a45b505b5050600090815260046020526040902080546001600160a01b0319166001600160a01b0392909216919091179055565b6119b2838383611a80565b610f94576001600160a01b0383166119e057604051637e27328960e01b81526004810182905260240161059f565b60405163177e802f60e01b81526001600160a01b03831660048201526024810182905260440161059f565b6060611a1682611329565b506000611a2e60408051602081019091526000815290565b90506000815111611a4e5760405180602001604052806000815250611a79565b80611a5884611ae3565b604051602001611a6992919061231d565b6040516020818303038152906040525b9392505050565b60006001600160a01b038316158015906118995750826001600160a01b0316846001600160a01b03161480611aba5750611aba848461124b565b806118995750506000908152600460205260409020546001600160a01b03908116911614919050565b60606000611af083611b76565b600101905060008167ffffffffffffffff811115611b1057611b10611dc6565b6040519080825280601f01601f191660200182016040528015611b3a576020820181803683370190505b5090508181016020015b600019016f181899199a1a9b1b9c1cb0b131b232b360811b600a86061a8153600a8504945084611b4457509392505050565b60008072184f03e93ff9f4daa797ed6e38ed64bf6a1f0160401b8310611bb55772184f03e93ff9f4daa797ed6e38ed64bf6a1f0160401b830492506040015b6d04ee2d6d415b85acef81000000008310611be1576d04ee2d6d415b85acef8100000000830492506020015b662386f26fc100008310611bff57662386f26fc10000830492506010015b6305f5e1008310611c17576305f5e100830492506008015b6127108310611c2b57612710830492506004015b60648310611c3d576064830492506002015b600a83106104975760010192915050565b6001600160e01b03198116811461115357600080fd5b600060208284031215611c7657600080fd5b8135611a7981611c4e565b60005b83811015611c9c578181015183820152602001611c84565b50506000910152565b60008151808452611cbd816020860160208601611c81565b601f01601f19169290920160200192915050565b602081526000611a796020830184611ca5565b600060208284031215611cf657600080fd5b5035919050565b80356001600160a01b0381168114611d1457600080fd5b919050565b60008060408385031215611d2c57600080fd5b611d3583611cfd565b946020939093013593505050565b60008060408385031215611d5657600080fd5b50508035926020909101359150565b60e081526000611d7860e083018a611ca5565b8281036020840152611d8a818a611ca5565b905087604084015286606084015285151560808401528460a084015282810360c0840152611db88185611ca5565b9a9950505050505050505050565b634e487b7160e01b600052604160045260246000fd5b600067ffffffffffffffff80841115611df757611df7611dc6565b604051601f8501601f19908116603f01168101908282118183101715611e1f57611e1f611dc6565b81604052809350858152868686011115611e3857600080fd5b858560208301376000602087830101525050509392505050565b600082601f830112611e6357600080fd5b611a7983833560208501611ddc565b80358015158114611d1457600080fd5b600080600080600080600080610100898b031215611e9f57600080fd5b611ea889611cfd565b9750602089013567ffffffffffffffff80821115611ec557600080fd5b611ed18c838d01611e52565b985060408b0135915080821115611ee757600080fd5b611ef38c838d01611e52565b975060608b01359650611f0860808c01611e72565b955060a08b0135945060c08b0135915080821115611f2557600080fd5b611f318c838d01611e52565b935060e08b0135915080821115611f4757600080fd5b50611f548b828c01611e52565b9150509295985092959890939650565b600080600060608486031215611f7957600080fd5b611f8284611cfd565b9250611f9060208501611cfd565b9150604084013590509250925092565b600060208284031215611fb257600080fd5b611a7982611cfd565b60008060408385031215611fce57600080fd5b611fd783611cfd565b9150611fe560208401611e72565b90509250929050565b6000806000806080858703121561200457600080fd5b61200d85611cfd565b935061201b60208601611cfd565b925060408501359150606085013567ffffffffffffffff81111561203e57600080fd5b8501601f8101871361204f57600080fd5b61205e87823560208401611ddc565b91505092959194509250565b6020808252825182820181905260009190848201906040850190845b818110156120a257835183529284019291840191600101612086565b50909695505050505050565b600080604083850312156120c157600080fd5b6120ca83611cfd565b9150611fe560208401611cfd565b600181811c908216806120ec57607f821691505b60208210810361210c57634e487b7160e01b600052602260045260246000fd5b50919050565b6020808252600e908201526d139bdd08185d5d1a1bdc9a5e995960921b604082015260600190565b634e487b7160e01b600052601160045260246000fd5b6000600182016121625761216261213a565b5060010190565b601f821115610f9457600081815260208120601f850160051c810160208610156121905750805b601f850160051c820191505b818110156117875782815560010161219c565b815167ffffffffffffffff8111156121c9576121c9611dc6565b6121dd816121d784546120d8565b84612169565b602080601f83116001811461221257600084156121fa5750858301515b600019600386901b1c1916600185901b178555611787565b600085815260208120601f198616915b8281101561224157888601518255948401946001909101908401612222565b508582101561225f5787850151600019600388901b60f8161c191681555b5050505050600190811b01905550565b808201808211156104975761049761213a565b602080825260149082015273151bdad95b88191bd95cc81b9bdd08195e1a5cdd60621b604082015260600190565b818103818111156104975761049761213a565b6001600160a01b03858116825284166020820152604081018390526080606082018190526000906122f690830184611ca5565b9695505050505050565b60006020828403121561231257600080fd5b8151611a7981611c4e565b6000835161232f818460208801611c81565b835190830190612343818360208801611c81565b0194935050505056fea2646970667358221220e6d0dfcc058842290f651deccc005206a4f2535f5eb44b5d45228298862e22e464736f6c63430008140033",
  "linkReferences": {},
  "deployedLinkReferences": {}
}