{
  "_format": "hh-sol-artifact-1",
  "contractName": "NFTGiftCard",
  "sourceName": "contracts/NFTGiftCard.sol",
  "abi": [
    {
      "inputs": [],
      "stateMutability": "nonpayable",
      "type": "constructor"
    },
    {
      "inputs": [
        {
          "internalType": "address",
          "name": "sender",
          "type": "address"
        },
        {
          "internalType": "uint256",
          "name": "tokenId",
          "type": "uint256"
        },
        {
          "internalType": "address",
          "name": "owner",
          "type": "address"
        }
      ],
      "name": "ERC721IncorrectOwner",
      "type": "error"
    },
    {
      "inputs": [
        {
          "internalType": "address",
          "name": "operator",
          "type": "address"
        },
        {
          "internalType": "uint256",
          "name": "tokenId",
          "type": "uint256"
        }
      ],
      "name": "ERC721InsufficientApproval",
      "type": "error"
    },
    {
      "inputs": [
        {
          "internalType": "address",
          "name": "approver",
          "type": "address"
        }
      ],
      "name": "ERC721InvalidApprover",
      "type": "error"
    },
    {
      "inputs": [
        {
          "internalType": "address",
          "name": "operator",
          "type": "address"
        }
      ],
      "name": "ERC721InvalidOperator",
      "type": "error"
    },
    {
      "inputs": [
        {
          "internalType": "address",
          "name": "owner",
          "type": "address"
        }
      ],
      "name": "ERC721InvalidOwner",
      "type": "error"
    },
    {
      "inputs": [
        {
          "internalType": "address",
          "name": "receiver",
          "type": "address"
        }
      ],
      "name": "ERC721InvalidReceiver",
      "type": "error"
    },
    {
      "inputs": [
        {
          "internalType": "address",
          "name": "sender",
          "type": "address"
        }
      ],
      "name": "ERC721InvalidSender",
      "type": "error"
    },
    {
      "inputs": [
        {
          "internalType": "uint256",
          "name": "tokenId",
          "type": "uint256"
        }
      ],
      "name": "ERC721NonexistentToken",
      "type": "error"
    },
    {
      "inputs": [
        {
          "internalType": "address",
          "name": "owner",
          "type": "address"
        }
      ],
      "name": "OwnableInvalidOwner",
      "type": "error"
    },
    {
      "inputs": [
        {
          "internalType": "address",
          "name": "account",
          "type": "address"
        }
      ],
      "name": "OwnableUnauthorizedAccount",
      "type": "error"
    },
    {
      "anonymous": false,
      "inputs": [
        {
          "indexed": true,
          "internalType": "address",
          "name": "owner",
          "type": "address"
        },
        {
          "indexed": true,
          "internalType": "address",
          "name": "approved",
          "type": "address"
        },
        {
          "indexed": true,
          "internalType": "uint256",
          "name": "tokenId",
          "type": "uint256"
        }
      ],
      "name": "Approval",
      "type": "event"
    },
    {
      "anonymous": false,
      "inputs": [
        {
          "indexed": true,
          "internalType": "address",
          "name": "owner",
          "type": "address"
        },
        {
          "indexed": true,
          "internalType": "address",
          "name": "operator",
          "type": "address"
        },
        {
          "indexed": false,
          "internalType": "bool",
          "name": "approved",
          "type": "bool"
        }
      ],
      "name": "ApprovalForAll",
      "type": "event"
    },
    {
      "anonymous": false,
      "inputs": [
        {
          "indexed": false,
          "internalType": "uint256",
          "name": "_fromTokenId",
          "type": "uint256"
        },
        {
          "indexed": false,
          "internalType": "uint256",
          "name": "_toTokenId",
          "type": "uint256"
        }
      ],
      "name": "BatchMetadataUpdate",
      "type": "event"
    },
    {
      "anonymous": false,
      "inputs": [
        {
          "indexed": true,
          "internalType": "uint256",
          "name": "tokenId",
          "type": "uint256"
        },
        {
          "indexed": true,
          "internalType": "address",
          "name": "recipient",
          "type": "address"
        },
        {
          "indexed": false,
          "internalType": "string",
          "name": "merchantName",
          "type": "string"
        },
        {
          "indexed": false,
          "internalType": "uint256",
          "name": "value",
          "type": "uint256"
        }
      ],
      "name": "GiftCardMinted",
      "type": "event"
    },
    {
      "anonymous": false,
      "inputs": [
        {
          "indexed": true,
          "internalType": "uint256",
          "name": "tokenId",
          "type": "uint256"
        },
        {
          "indexed": true,
          "internalType": "address",
          "name": "user",
          "type": "address"
        },
        {
          "indexed": false,
          "internalType": "uint256",
          "name": "amount",
          "type": "uint256"
        }
      ],
      "name": "GiftCardRecharged",
      "type": "event"
    },
    {
      "anonymous": false,
      "inputs": [
        {
          "indexed": true,
          "internalType": "uint256",
          "name": "tokenId",
          "type": "uint256"
        },
        {
          "indexed": true,
          "internalType": "address",
          "name": "user",
          "type": "address"
        },
        {
          "indexed": false,
          "internalType": "uint256",
          "name": "amount",
          "type": "uint256"
        }
      ],
      "name": "GiftCardRedeemed",
      "type": "event"
    },
    {
      "anonymous": false,
      "inputs": [
        {
          "indexed": false,
          "internalType": "uint256",
          "name": "_tokenId",
          "type": "uint256"
        }
      ],
      "name": "MetadataUpdate",
      "type": "event"
    },
    {
      "anonymous": false,
      "inputs": [
        {
          "indexed": true,
          "internalType": "address",
          "name": "previousOwner",
          "type": "address"
        },
        {
          "indexed": true,
          "internalType": "address",
          "name": "newOwner",
          "type": "address"
        }
      ],
      "name": "OwnershipTransferred",
      "type": "event"
    },
    {
      "anonymous": false,
      "inputs": [
        {
          "indexed": true,
          "internalType": "address",
          "name": "from",
          "type": "address"
        },
        {
          "indexed": true,
          "internalType": "address",
          "name": "to",
          "type": "address"
        },
        {
          "indexed": true,
          "internalType": "uint256",
          "name": "tokenId",
          "type": "uint256"
        }
      ],
      "name": "Transfer",
      "type": "event"
    },
    {
      "inputs": [
        {
          "internalType": "address",
          "name": "to",
          "type": "address"
        },
        {
          "internalType": "uint256",
          "name": "tokenId",
          "type": "uint256"
        }
      ],
      "name": "approve",
      "outputs": [],
      "stateMutability": "nonpayable",
      "type": "function"
    },
    {
      "inputs": [
        {
          "internalType": "address",
          "name": "owner",
          "type": "address"
        }
      ],
      "name": "balanceOf",
      "outputs": [
        {
          "internalType": "uint256",
          "name": "",
          "type": "uint256"
        }
      ],
      "stateMutability": "view",
      "type": "function"
    },
    {
      "inputs": [
        {
          "internalType": "uint256",
          "name": "tokenId",
          "type": "uint256"
        }
      ],
      "name": "getApproved",
      "outputs": [
        {
          "internalType": "address",
          "name": "",
          "type": "address"
        }
      ],
      "stateMutability": "view",
      "type": "function"
    },
    {
      "inputs": [
        {
          "internalType": "uint256",
          "name": "tokenId",
          "type": "uint256"
        }
      ],
      "name": "getBalance",
      "outputs": [
        {
          "internalType": "uint256",
          "name": "",
          "type": "uint256"
        }
      ],
      "stateMutability": "view",
      "type": "function"
    },
    {
      "inputs": [
        {
          "internalType": "uint256",
          "name": "tokenId",
          "type": "uint256"
        }
      ],
      "name": "getGiftCard",
      "outputs": [
        {
          "components": [
            {
              "internalType": "string",
              "name": "merchantName",
              "type": "string"
            },
            {
              "internalType": "string",
              "name": "category",
              "type": "string"
            },
            {
              "internalType": "uint256",
              "name": "valueInWei",
              "type": "uint256"
            },
            {
              "internalType": "uint256",
              "name": "balanceInWei",
              "type": "uint256"
            },
            {
              "internalType": "bool",
              "name": "isRedeemable",
              "type": "bool"
            },
            {
              "internalType": "bool",
              "name": "isRechargeable",
              "type": "bool"
            },
            {
              "internalType": "uint256",
              "name": "expirationDate",
              "type": "uint256"
            },
            {
              "internalType": "string",
              "name": "metadata",
              "type": "string"
            }
          ],
          "internalType": "struct NFTGiftCard.GiftCard",
          "name": "",
          "type": "tuple"
        }
      ],
      "stateMutability": "view",
      "type": "function"
    },
    {
      "inputs": [
        {
          "internalType": "address",
          "name": "user",
          "type": "address"
        }
      ],
      "name": "getUserGiftCards",
      "outputs": [
        {
          "internalType": "uint256[]",
          "name": "",
          "type": "uint256[]"
        }
      ],
      "stateMutability": "view",
      "type": "function"
    },
    {
      "inputs": [
        {
          "internalType": "uint256",
          "name": "",
          "type": "uint256"
        }
      ],
      "name": "giftCards",
      "outputs": [
        {
          "internalType": "string",
          "name": "merchantName",
          "type": "string"
        },
        {
          "internalType": "string",
          "name": "category",
          "type": "string"
        },
        {
          "internalType": "uint256",
          "name": "valueInWei",
          "type": "uint256"
        },
        {
          "internalType": "uint256",
          "name": "balanceInWei",
          "type": "uint256"
        },
        {
          "internalType": "bool",
          "name": "isRedeemable",
          "type": "bool"
        },
        {
          "internalType": "bool",
          "name": "isRechargeable",
          "type": "bool"
        },
        {
          "internalType": "uint256",
          "name": "expirationDate",
          "type": "uint256"
        },
        {
          "internalType": "string",
          "name": "metadata",
          "type": "string"
        }
      ],
      "stateMutability": "view",
      "type": "function"
    },
    {
      "inputs": [
        {
          "internalType": "address",
          "name": "owner",
          "type": "address"
        },
        {
          "internalType": "address",
          "name": "operator",
          "type": "address"
        }
      ],
      "name": "isApprovedForAll",
      "outputs": [
        {
          "internalType": "bool",
          "name": "",
          "type": "bool"
        }
      ],
      "stateMutability": "view",
      "type": "function"
    },
    {
      "inputs": [
        {
          "internalType": "uint256",
          "name": "tokenId",
          "type": "uint256"
        }
      ],
      "name": "isExpired",
      "outputs": [
        {
          "internalType": "bool",
          "name": "",
          "type": "bool"
        }
      ],
      "stateMutability": "view",
      "type": "function"
    },
    {
      "inputs": [
        {
          "internalType": "address",
          "name": "to",
          "type": "address"
        },
        {
          "internalType": "string",
          "name": "merchantName",
          "type": "string"
        },
        {
          "internalType": "string",
          "name": "category",
          "type": "string"
        },
        {
          "internalType": "uint256",
          "name": "valueInWei",
          "type": "uint256"
        },
        {
          "internalType": "bool",
          "name": "isRechargeable",
          "type": "bool"
        },
        {
          "internalType": "uint256",
          "name": "expirationDate",
          "type": "uint256"
        },
        {
          "internalType": "string",
          "name": "_tokenURI",
          "type": "string"
        },
        {
          "internalType": "string",
          "name": "metadata",
          "type": "string"
        }
      ],
      "name": "mintGiftCard",
      "outputs": [
        {
          "internalType": "uint256",
          "name": "",
          "type": "uint256"
        }
      ],
      "stateMutability": "payable",
      "type": "function"
    },
    {
      "inputs": [],
      "name": "name",
      "outputs": [
        {
          "internalType": "string",
          "name": "",
          "type": "string"
        }
      ],
      "stateMutability": "view",
      "type": "function"
    },
    {
      "inputs": [],
      "name": "owner",
      "outputs": [
        {
          "internalType": "address",
          "name": "",
          "type": "address"
        }
      ],
      "stateMutability": "view",
      "type": "function"
    },
    {
      "inputs": [
        {
          "internalType": "uint256",
          "name": "tokenId",
          "type": "uint256"
        }
      ],
      "name": "ownerOf",
      "outputs": [
        {
          "internalType": "address",
          "name": "",
          "type": "address"
        }
      ],
      "stateMutability": "view",
      "type": "function"
    },
    {
      "inputs": [
        {
          "internalType": "uint256",
          "name": "tokenId",
          "type": "uint256"
        }
      ],
      "name": "rechargeGiftCard",
      "outputs": [],
      "stateMutability": "payable",
      "type": "function"
    },
    {
      "inputs": [
        {
          "internalType": "uint256",
          "name": "tokenId",
          "type": "uint256"
        },
        {
          "internalType": "uint256",
          "name": "amount",
          "type": "uint256"
        }
      ],
      "name": "redeemGiftCard",
      "outputs": [],
      "stateMutability": "nonpayable",
      "type": "function"
    },
    {
      "inputs": [],
      "name": "renounceOwnership",
      "outputs": [],
      "stateMutability": "nonpayable",
      "type": "function"
    },
    {
      "inputs": [
        {
          "internalType": "address",
          "name": "from",
          "type": "address"
        },
        {
          "internalType": "address",
          "name": "to",
          "type": "address"
        },
        {
          "internalType": "uint256",
          "name": "tokenId",
          "type": "uint256"
        }
      ],
      "name": "safeTransferFrom",
      "outputs": [],
      "stateMutability": "nonpayable",
      "type": "function"
    },
    {
      "inputs": [
        {
          "internalType": "address",
          "name": "from",
          "type": "address"
        },
        {
          "internalType": "address",
          "name": "to",
          "type": "address"
        },
        {
          "internalType": "uint256",
          "name": "tokenId",
          "type": "uint256"
        },
        {
          "internalType": "bytes",
          "name": "data",
          "type": "bytes"
        }
      ],
      "name": "safeTransferFrom",
      "outputs": [],
      "stateMutability": "nonpayable",
      "type": "function"
    },
    {
      "inputs": [
        {
          "internalType": "address",
          "name": "operator",
          "type": "address"
        },
        {
          "internalType": "bool",
          "name": "approved",
          "type": "bool"
        }
      ],
      "name": "setApprovalForAll",
      "outputs": [],
      "stateMutability": "nonpayable",
      "type": "function"
    },
    {
      "inputs": [
        {
          "internalType": "bytes4",
          "name": "interfaceId",
          "type": "bytes4"
        }
      ],
      "name": "supportsInterface",
      "outputs": [
        {
          "internalType": "bool",
          "name": "",
          "type": "bool"
        }
      ],
      "stateMutability": "view",
      "type": "function"
    },
    {
      "inputs": [],
      "name": "symbol",
      "outputs": [
        {
          "internalType": "string",
          "name": "",
          "type": "string"
        }
      ],
      "stateMutability": "view",
      "type": "function"
    },
    {
      "inputs": [
        {
          "internalType": "uint256",
          "name": "tokenId",
          "type": "uint256"
        }
      ],
      "name": "tokenURI",
      "outputs": [
        {
          "internalType": "string",
          "name": "",
          "type": "string"
        }
      ],
      "stateMutability": "view",
      "type": "function"
    },
    {
      "inputs": [
        {
          "internalType": "address",
          "name": "from",
          "type": "address"
        },
        {
          "internalType": "address",
          "name": "to",
          "type": "address"
        },
        {
          "internalType": "uint256",
          "name": "tokenId",
          "type": "uint256"
        }
      ],
      "name": "transferFrom",
      "outputs": [],
      "stateMutability": "nonpayable",
      "type": "function"
    },
    {
      "inputs": [
        {
          "internalType": "address",
          "name": "newOwner",
          "type": "address"
        }
      ],
      "name": "transferOwnership",
      "outputs": [],
      "stateMutability": "nonpayable",
      "type": "function"
    },
    {
      "inputs": [
        {
          "internalType": "address",
          "name": "",
          "type": "address"
        },
        {
          "internalType": "uint256",
          "name": "",
          "type": "uint256"
        }
      ],
      "name": "userGiftCards",
      "outputs": [
        {
          "internalType": "uint256",
          "name": "",
          "type": "uint256"
        }
      ],
      "stateMutability": "view",
      "type": "function"
    },
    {
      "inputs": [],
      "name": "withdraw",
      "outputs": [],
      "stateMutability": "nonpayable",
      "type": "function"
    }
  ],
  "bytecode": "0x60806040523480156200001157600080fd5b50336040518060400160405280600d81526020016c1391950811da599d0810d85c99609a1b815250604051806040016040528060058152602001644e4654474360d81b8152508160009081620000689190620001b2565b506001620000778282620001b2565b5050506001600160a01b038116620000a957604051631e4fbdf760e01b81526000600482015260240160405180910390fd5b620000b481620000bb565b506200027e565b600780546001600160a01b038381166001600160a01b0319831681179093556040519116919082907f8be0079c531659141344cd1fd0a4f28419497f9722a3daafe3b4186f6b6457e090600090a35050565b634e487b7160e01b600052604160045260246000fd5b600181811c908216806200013857607f821691505b6020821081036200015957634e487b7160e01b600052602260045260246000fd5b50919050565b601f821115620001ad57600081815260208120601f850160051c81016020861015620001885750805b601f850160051c820191505b81811015620001a95782815560010162000194565b5050505b505050565b81516001600160401b03811115620001ce57620001ce6200010d565b620001e681620001df845462000123565b846200015f565b602080601f8311600181146200021e5760008415620002055750858301515b600019600386901b1c1916600185901b178555620001a9565b600085815260208120601f198616915b828110156200024f578886015182559484019460019091019084016200022e565b50858210156200026e5787850151600019600388901b60f8161c191681555b5050505050600190811b01905550565b612546806200028e6000396000f3fe6080604052600436106101815760003560e01c806370a08231116100d1578063a22cb4651161008a578063d9548e5311610064578063d9548e5314610469578063e086272d14610489578063e985e9c5146104b6578063f2fde38b146104d657600080fd5b8063a22cb46514610409578063b88d4fde14610429578063c87b56dd1461044957600080fd5b806370a082311461035a578063715018a61461037a5780638da5cb5b1461038f578063917a2a7b146103ad57806395d89b41146103c05780639898135f146103d557600080fd5b80631fd1c9231161013e5780633ccfd60b116101185780633ccfd60b146102e55780633e272534146102fa57806342842e0e1461031a5780636352211e1461033a57600080fd5b80631fd1c923146102925780631fdc7573146102a557806323b872dd146102c557600080fd5b806301ffc9a71461018657806306fdde03146101bb578063081812fc146101dd578063095ea7b3146102155780631179c98e146102375780631e01043914610264575b600080fd5b34801561019257600080fd5b506101a66101a1366004611d7d565b6104f6565b60405190151581526020015b60405180910390f35b3480156101c757600080fd5b506101d0610507565b6040516101b29190611dea565b3480156101e957600080fd5b506101fd6101f8366004611dfd565b610599565b6040516001600160a01b0390911681526020016101b2565b34801561022157600080fd5b50610235610230366004611e32565b6105c2565b005b34801561024357600080fd5b50610257610252366004611dfd565b6105d1565b6040516101b29190611e5c565b34801561027057600080fd5b5061028461027f366004611dfd565b61086e565b6040519081526020016101b2565b6102846102a0366004611fbe565b6108b6565b3480156102b157600080fd5b506102356102c03660046120a0565b610a35565b3480156102d157600080fd5b506102356102e03660046120c2565b610c6b565b3480156102f157600080fd5b50610235610cf6565b34801561030657600080fd5b50610284610315366004611e32565b610deb565b34801561032657600080fd5b506102356103353660046120c2565b610e1c565b34801561034657600080fd5b506101fd610355366004611dfd565b610e3c565b34801561036657600080fd5b506102846103753660046120fe565b610e47565b34801561038657600080fd5b50610235610e8f565b34801561039b57600080fd5b506007546001600160a01b03166101fd565b6102356103bb366004611dfd565b610ea3565b3480156103cc57600080fd5b506101d061106d565b3480156103e157600080fd5b506103f56103f0366004611dfd565b61107c565b6040516101b2989796959493929190612119565b34801561041557600080fd5b50610235610424366004612186565b611260565b34801561043557600080fd5b506102356104443660046121b9565b61126b565b34801561045557600080fd5b506101d0610464366004611dfd565b611283565b34801561047557600080fd5b506101a6610484366004611dfd565b61128e565b34801561049557600080fd5b506104a96104a43660046120fe565b6112d8565b6040516101b29190612235565b3480156104c257600080fd5b506101a66104d1366004612279565b611344565b3480156104e257600080fd5b506102356104f13660046120fe565b611372565b6000610501826113b0565b92915050565b606060008054610516906122a3565b80601f0160208091040260200160405190810160405280929190818152602001828054610542906122a3565b801561058f5780601f106105645761010080835404028352916020019161058f565b820191906000526020600020905b81548152906001019060200180831161057257829003601f168201915b5050505050905090565b60006105a4826113d5565b506000828152600460205260409020546001600160a01b0316610501565b6105cd82823361140d565b5050565b61061d6040518061010001604052806060815260200160608152602001600081526020016000815260200160001515815260200160001515815260200160008152602001606081525090565b60006106288361141a565b6001600160a01b0316036106575760405162461bcd60e51b815260040161064e906122dd565b60405180910390fd5b6000828152600960205260409081902081516101008101909252805482908290610680906122a3565b80601f01602080910402602001604051908101604052809291908181526020018280546106ac906122a3565b80156106f95780601f106106ce576101008083540402835291602001916106f9565b820191906000526020600020905b8154815290600101906020018083116106dc57829003601f168201915b50505050508152602001600182018054610712906122a3565b80601f016020809104026020016040519081016040528092919081815260200182805461073e906122a3565b801561078b5780601f106107605761010080835404028352916020019161078b565b820191906000526020600020905b81548152906001019060200180831161076e57829003601f168201915b50505091835250506002820154602082015260038201546040820152600482015460ff808216151560608401526101009091041615156080820152600582015460a082015260068201805460c0909201916107e5906122a3565b80601f0160208091040260200160405190810160405280929190818152602001828054610811906122a3565b801561085e5780601f106108335761010080835404028352916020019161085e565b820191906000526020600020905b81548152906001019060200180831161084157829003601f168201915b5050505050815250509050919050565b60008061087a8361141a565b6001600160a01b0316036108a05760405162461bcd60e51b815260040161064e906122dd565b5060009081526009602052604090206003015490565b60006108c0611435565b6008805490819060006108d28361232a565b91905055506108e18a82611462565b6108eb818561147c565b60408051610100810182528a815260208082018b90528183018a90523460608301526001608083015288151560a083015260c0820188905260e082018690526000848152600990915291909120815181906109469082612389565b506020820151600182019061095b9082612389565b506040820151600282015560608201516003820155608082015160048201805460a085015115156101000261ff00199315159390931661ffff199091161791909117905560c0820151600582015560e082015160068201906109bd9082612389565b5050506001600160a01b038a166000818152600a60209081526040808320805460018101825590845291909220018390555182907fc960f6e204667a52e36ed1a194fa38c2d03b2c5451fd9793edc45bc569407acb90610a20908d908c90612449565b60405180910390a39998505050505050505050565b6000610a408361141a565b6001600160a01b031603610a665760405162461bcd60e51b815260040161064e906122dd565b33610a7083610e3c565b6001600160a01b031614610ac65760405162461bcd60e51b815260206004820152601f60248201527f4e6f7420746865206f776e6572206f6620746869732067696674206361726400604482015260640161064e565b60008281526009602052604090206004015460ff16610b275760405162461bcd60e51b815260206004820152601b60248201527f476966742063617264206973206e6f742072656465656d61626c650000000000604482015260640161064e565b600082815260096020526040902060030154811115610b7f5760405162461bcd60e51b8152602060048201526014602482015273496e73756666696369656e742062616c616e636560601b604482015260640161064e565b600082815260096020526040902060050154421115610bd85760405162461bcd60e51b815260206004820152601560248201527411da599d0818d85c99081a185cc8195e1c1a5c9959605a1b604482015260640161064e565b60008281526009602052604081206003018054839290610bf990849061246b565b90915550506000828152600960205260408120600301549003610c30576000828152600960205260409020600401805460ff191690555b604051818152339083907fe667a0284709bee6fc34c6471af5771a558f1222ebe145af525375a49b03be729060200160405180910390a35050565b6001600160a01b038216610c9557604051633250574960e11b81526000600482015260240161064e565b6000610ca28383336114cc565b9050836001600160a01b0316816001600160a01b031614610cf0576040516364283d7b60e01b81526001600160a01b038086166004830152602482018490528216604482015260640161064e565b50505050565b610cfe611435565b4780610d435760405162461bcd60e51b81526020600482015260146024820152734e6f2066756e647320746f20776974686472617760601b604482015260640161064e565b6000610d576007546001600160a01b031690565b6001600160a01b03168260405160006040518083038185875af1925050503d8060008114610da1576040519150601f19603f3d011682016040523d82523d6000602084013e610da6565b606091505b50509050806105cd5760405162461bcd60e51b815260206004820152601160248201527015da5d1a191c985dd85b0819985a5b1959607a1b604482015260640161064e565b600a6020528160005260406000208181548110610e0757600080fd5b90600052602060002001600091509150505481565b610e378383836040518060200160405280600081525061126b565b505050565b6000610501826113d5565b60006001600160a01b038216610e73576040516322718ad960e21b81526000600482015260240161064e565b506001600160a01b031660009081526003602052604090205490565b610e97611435565b610ea160006115c0565b565b6000610eae8261141a565b6001600160a01b031603610ed45760405162461bcd60e51b815260040161064e906122dd565b33610ede82610e3c565b6001600160a01b031614610f345760405162461bcd60e51b815260206004820152601f60248201527f4e6f7420746865206f776e6572206f6620746869732067696674206361726400604482015260640161064e565b600081815260096020526040902060040154610100900460ff16610f9a5760405162461bcd60e51b815260206004820152601d60248201527f476966742063617264206973206e6f7420726563686172676561626c65000000604482015260640161064e565b60003411610fea5760405162461bcd60e51b815260206004820181905260248201527f4d7573742073656e6420736f6d652076616c756520746f207265636861726765604482015260640161064e565b6000818152600960205260408120600301805434929061100b90849061247e565b909155505060008181526009602052604090819020600401805460ff1916600117905551339082907f0b4e2e3ac71a816fe170693a36ca42d6baee20518338c8f9e664c21f643bdec8906110629034815260200190565b60405180910390a350565b606060018054610516906122a3565b600960205260009081526040902080548190611097906122a3565b80601f01602080910402602001604051908101604052809291908181526020018280546110c3906122a3565b80156111105780601f106110e557610100808354040283529160200191611110565b820191906000526020600020905b8154815290600101906020018083116110f357829003601f168201915b505050505090806001018054611125906122a3565b80601f0160208091040260200160405190810160405280929190818152602001828054611151906122a3565b801561119e5780601f106111735761010080835404028352916020019161119e565b820191906000526020600020905b81548152906001019060200180831161118157829003601f168201915b5050505060028301546003840154600485015460058601546006870180549697949693955060ff8084169561010090940416939192916111dd906122a3565b80601f0160208091040260200160405190810160405280929190818152602001828054611209906122a3565b80156112565780601f1061122b57610100808354040283529160200191611256565b820191906000526020600020905b81548152906001019060200180831161123957829003601f168201915b5050505050905088565b6105cd338383611612565b611276848484610c6b565b610cf033858585856116b1565b6060610501826117dc565b60008061129a8361141a565b6001600160a01b0316036112c05760405162461bcd60e51b815260040161064e906122dd565b50600090815260096020526040902060050154421190565b6001600160a01b0381166000908152600a602090815260409182902080548351818402810184019094528084526060939283018282801561133857602002820191906000526020600020905b815481526020019060010190808311611324575b50505050509050919050565b6001600160a01b03918216600090815260056020908152604080832093909416825291909152205460ff1690565b61137a611435565b6001600160a01b0381166113a457604051631e4fbdf760e01b81526000600482015260240161064e565b6113ad816115c0565b50565b60006001600160e01b03198216632483248360e11b14806105015750610501826118ed565b6000806113e18361141a565b90506001600160a01b03811661050157604051637e27328960e01b81526004810184905260240161064e565b610e37838383600161193d565b6000908152600260205260409020546001600160a01b031690565b6007546001600160a01b03163314610ea15760405163118cdaa760e01b815233600482015260240161064e565b6105cd828260405180602001604052806000815250611a43565b60008281526006602052604090206114948282612389565b506040518281527ff8e1a15aba9398e019f0b49df1a4fde98ee17ae345cb5f6b5e2c27f5033e8ce79060200160405180910390a15050565b6000806114d88461141a565b90506001600160a01b038316156114f4576114f4818486611a5b565b6001600160a01b038116156115325761151160008560008061193d565b6001600160a01b038116600090815260036020526040902080546000190190555b6001600160a01b03851615611561576001600160a01b0385166000908152600360205260409020805460010190555b60008481526002602052604080822080546001600160a01b0319166001600160a01b0389811691821790925591518793918516917fddf252ad1be2c89b69c2b068fc378daa952ba7f163c4a11628f55a4df523b3ef91a4949350505050565b600780546001600160a01b038381166001600160a01b0319831681179093556040519116919082907f8be0079c531659141344cd1fd0a4f28419497f9722a3daafe3b4186f6b6457e090600090a35050565b6001600160a01b03821661164457604051630b61174360e31b81526001600160a01b038316600482015260240161064e565b6001600160a01b03838116600081815260056020908152604080832094871680845294825291829020805460ff191686151590811790915591519182527f17307eab39ab6107e8899845ad3d59bd9653f200f220920489ca2b5937696c31910160405180910390a3505050565b6001600160a01b0383163b156117d557604051630a85bd0160e11b81526001600160a01b0384169063150b7a02906116f3908890889087908790600401612491565b6020604051808303816000875af192505050801561172e575060408051601f3d908101601f1916820190925261172b918101906124c4565b60015b611797573d80801561175c576040519150601f19603f3d011682016040523d82523d6000602084013e611761565b606091505b50805160000361178f57604051633250574960e11b81526001600160a01b038516600482015260240161064e565b805181602001fd5b6001600160e01b03198116630a85bd0160e11b146117d357604051633250574960e11b81526001600160a01b038516600482015260240161064e565b505b5050505050565b60606117e7826113d5565b5060008281526006602052604081208054611801906122a3565b80601f016020809104026020016040519081016040528092919081815260200182805461182d906122a3565b801561187a5780601f1061184f5761010080835404028352916020019161187a565b820191906000526020600020905b81548152906001019060200180831161185d57829003601f168201915b50505050509050600061189860408051602081019091526000815290565b905080516000036118aa575092915050565b8151156118dc5780826040516020016118c49291906124e1565b60405160208183030381529060405292505050919050565b6118e584611abf565b949350505050565b60006001600160e01b031982166380ac58cd60e01b148061191e57506001600160e01b03198216635b5e139f60e01b145b8061050157506301ffc9a760e01b6001600160e01b0319831614610501565b808061195157506001600160a01b03821615155b15611a13576000611961846113d5565b90506001600160a01b0383161580159061198d5750826001600160a01b0316816001600160a01b031614155b80156119a0575061199e8184611344565b155b156119c95760405163a9fbf51f60e01b81526001600160a01b038416600482015260240161064e565b8115611a115783856001600160a01b0316826001600160a01b03167f8c5be1e5ebec7d5bd14f71427d1e84f3dd0314c0f7b2291e5b200ac8c7c3b92560405160405180910390a45b505b5050600090815260046020526040902080546001600160a01b0319166001600160a01b0392909216919091179055565b611a4d8383611b34565b610e373360008585856116b1565b611a66838383611b99565b610e37576001600160a01b038316611a9457604051637e27328960e01b81526004810182905260240161064e565b60405163177e802f60e01b81526001600160a01b03831660048201526024810182905260440161064e565b6060611aca826113d5565b506000611ae260408051602081019091526000815290565b90506000815111611b025760405180602001604052806000815250611b2d565b80611b0c84611bfc565b604051602001611b1d9291906124e1565b6040516020818303038152906040525b9392505050565b6001600160a01b038216611b5e57604051633250574960e11b81526000600482015260240161064e565b6000611b6c838360006114cc565b90506001600160a01b03811615610e37576040516339e3563760e11b81526000600482015260240161064e565b60006001600160a01b038316158015906118e55750826001600160a01b0316846001600160a01b03161480611bd35750611bd38484611344565b806118e55750506000908152600460205260409020546001600160a01b03908116911614919050565b60606000611c0983611c8f565b600101905060008167ffffffffffffffff811115611c2957611c29611f02565b6040519080825280601f01601f191660200182016040528015611c53576020820181803683370190505b5090508181016020015b600019016f181899199a1a9b1b9c1cb0b131b232b360811b600a86061a8153600a8504945084611c5d57509392505050565b60008072184f03e93ff9f4daa797ed6e38ed64bf6a1f0160401b8310611cce5772184f03e93ff9f4daa797ed6e38ed64bf6a1f0160401b830492506040015b6d04ee2d6d415b85acef81000000008310611cfa576d04ee2d6d415b85acef8100000000830492506020015b662386f26fc100008310611d1857662386f26fc10000830492506010015b6305f5e1008310611d30576305f5e100830492506008015b6127108310611d4457612710830492506004015b60648310611d56576064830492506002015b600a83106105015760010192915050565b6001600160e01b0319811681146113ad57600080fd5b600060208284031215611d8f57600080fd5b8135611b2d81611d67565b60005b83811015611db5578181015183820152602001611d9d565b50506000910152565b60008151808452611dd6816020860160208601611d9a565b601f01601f19169290920160200192915050565b602081526000611b2d6020830184611dbe565b600060208284031215611e0f57600080fd5b5035919050565b80356001600160a01b0381168114611e2d57600080fd5b919050565b60008060408385031215611e4557600080fd5b611e4e83611e16565b946020939093013593505050565b6020815260008251610100806020850152611e7b610120850183611dbe565b91506020850151601f1980868503016040870152611e998483611dbe565b9350604087015160608701526060870151608087015260808701519150611ec460a087018315159052565b60a087015180151560c0880152915060c087015160e087015260e0870151915080868503018387015250611ef88382611dbe565b9695505050505050565b634e487b7160e01b600052604160045260246000fd5b600067ffffffffffffffff80841115611f3357611f33611f02565b604051601f8501601f19908116603f01168101908282118183101715611f5b57611f5b611f02565b81604052809350858152868686011115611f7457600080fd5b858560208301376000602087830101525050509392505050565b600082601f830112611f9f57600080fd5b611b2d83833560208501611f18565b80358015158114611e2d57600080fd5b600080600080600080600080610100898b031215611fdb57600080fd5b611fe489611e16565b9750602089013567ffffffffffffffff8082111561200157600080fd5b61200d8c838d01611f8e565b985060408b013591508082111561202357600080fd5b61202f8c838d01611f8e565b975060608b0135965061204460808c01611fae565b955060a08b0135945060c08b013591508082111561206157600080fd5b61206d8c838d01611f8e565b935060e08b013591508082111561208357600080fd5b506120908b828c01611f8e565b9150509295985092959890939650565b600080604083850312156120b357600080fd5b50508035926020909101359150565b6000806000606084860312156120d757600080fd5b6120e084611e16565b92506120ee60208501611e16565b9150604084013590509250925092565b60006020828403121561211057600080fd5b611b2d82611e16565b600061010080835261212d8184018c611dbe565b90508281036020840152612141818b611dbe565b9050886040840152876060840152861515608084015285151560a08401528460c084015282810360e08401526121778185611dbe565b9b9a5050505050505050505050565b6000806040838503121561219957600080fd5b6121a283611e16565b91506121b060208401611fae565b90509250929050565b600080600080608085870312156121cf57600080fd5b6121d885611e16565b93506121e660208601611e16565b925060408501359150606085013567ffffffffffffffff81111561220957600080fd5b8501601f8101871361221a57600080fd5b61222987823560208401611f18565b91505092959194509250565b6020808252825182820181905260009190848201906040850190845b8181101561226d57835183529284019291840191600101612251565b50909695505050505050565b6000806040838503121561228c57600080fd5b61229583611e16565b91506121b060208401611e16565b600181811c908216806122b757607f821691505b6020821081036122d757634e487b7160e01b600052602260045260246000fd5b50919050565b60208082526018908201527f47696674206361726420646f6573206e6f742065786973740000000000000000604082015260600190565b634e487b7160e01b600052601160045260246000fd5b60006001820161233c5761233c612314565b5060010190565b601f821115610e3757600081815260208120601f850160051c8101602086101561236a5750805b601f850160051c820191505b818110156117d357828155600101612376565b815167ffffffffffffffff8111156123a3576123a3611f02565b6123b7816123b184546122a3565b84612343565b602080601f8311600181146123ec57600084156123d45750858301515b600019600386901b1c1916600185901b1785556117d3565b600085815260208120601f198616915b8281101561241b578886015182559484019460019091019084016123fc565b50858210156124395787850151600019600388901b60f8161c191681555b5050505050600190811b01905550565b60408152600061245c6040830185611dbe565b90508260208301529392505050565b8181038181111561050157610501612314565b8082018082111561050157610501612314565b6001600160a01b0385811682528416602082015260408101839052608060608201819052600090611ef890830184611dbe565b6000602082840312156124d657600080fd5b8151611b2d81611d67565b600083516124f3818460208801611d9a565b835190830190612507818360208801611d9a565b0194935050505056fea2646970667358221220d599255aa34be31e8ae1011b8b024e302e8c60080aecdd6b400fd3a1619def1e64736f6c63430008140033",
  "linkReferences": {},
  "deployedLinkReferences": {}
}